{
  "_format": "hh-sol-artifact-1",
  "contractName": "Treasury",
  "sourceName": "contracts/Treasury.sol",
  "abi": [
    {
      "inputs": [
        {
          "internalType": "bytes32",
          "name": "callId",
          "type": "bytes32"
        }
      ],
      "name": "CallAlreadyApproved",
      "type": "error"
    },
    {
      "inputs": [
        {
          "internalType": "bytes32",
          "name": "callId",
          "type": "bytes32"
        }
      ],
      "name": "CallNotApproved",
      "type": "error"
    },
    {
      "inputs": [
        {
          "internalType": "bytes32",
          "name": "callId",
          "type": "bytes32"
        },
        {
          "internalType": "bytes4",
          "name": "selector",
          "type": "bytes4"
        },
        {
          "internalType": "bytes",
          "name": "callData",
          "type": "bytes"
        }
      ],
      "name": "ConditionNotMet",
      "type": "error"
    },
    {
      "inputs": [
        {
          "internalType": "bytes32",
          "name": "callId",
          "type": "bytes32"
        },
        {
          "internalType": "bytes4",
          "name": "selector",
          "type": "bytes4"
        },
        {
          "internalType": "bytes4",
          "name": "expectedSelector",
          "type": "bytes4"
        }
      ],
      "name": "SelectorDoesNotMatch",
      "type": "error"
    },
    {
      "inputs": [
        {
          "internalType": "bytes32",
          "name": "callId",
          "type": "bytes32"
        },
        {
          "internalType": "address",
          "name": "target",
          "type": "address"
        },
        {
          "internalType": "address",
          "name": "expectedTarget",
          "type": "address"
        }
      ],
      "name": "TargetDoesNotMatch",
      "type": "error"
    },
    {
      "inputs": [
        {
          "internalType": "address",
          "name": "sender",
          "type": "address"
        },
        {
          "internalType": "address",
          "name": "expectedSender",
          "type": "address"
        }
      ],
      "name": "Unauthorized",
      "type": "error"
    },
    {
      "anonymous": false,
      "inputs": [
        {
          "indexed": true,
          "internalType": "bytes32",
          "name": "callId",
          "type": "bytes32"
        },
        {
          "indexed": true,
          "internalType": "address",
          "name": "target",
          "type": "address"
        },
        {
          "indexed": true,
          "internalType": "bytes4",
          "name": "selector",
          "type": "bytes4"
        },
        {
          "indexed": false,
          "internalType": "bytes",
          "name": "conditions",
          "type": "bytes"
        },
        {
          "indexed": false,
          "internalType": "bytes",
          "name": "mask",
          "type": "bytes"
        }
      ],
      "name": "CallApproved",
      "type": "event"
    },
    {
      "anonymous": false,
      "inputs": [
        {
          "indexed": true,
          "internalType": "bytes32",
          "name": "callId",
          "type": "bytes32"
        },
        {
          "indexed": true,
          "internalType": "address",
          "name": "target",
          "type": "address"
        },
        {
          "indexed": true,
          "internalType": "bytes4",
          "name": "selector",
          "type": "bytes4"
        },
        {
          "indexed": false,
          "internalType": "bytes",
          "name": "data",
          "type": "bytes"
        }
      ],
      "name": "CallExecuted",
      "type": "event"
    },
    {
      "inputs": [
        {
          "internalType": "address",
          "name": "_target",
          "type": "address"
        },
        {
          "internalType": "bytes4",
          "name": "_selector",
          "type": "bytes4"
        },
        {
          "internalType": "bytes",
          "name": "_conditions",
          "type": "bytes"
        },
        {
          "internalType": "bytes",
          "name": "_mask",
          "type": "bytes"
        }
      ],
      "name": "addApprovedCall",
      "outputs": [],
      "stateMutability": "nonpayable",
      "type": "function"
    },
    {
      "inputs": [
        {
          "internalType": "address",
          "name": "_asset",
          "type": "address"
        },
        {
          "internalType": "uint256",
          "name": "decimals",
          "type": "uint256"
        },
        {
          "internalType": "address",
          "name": "priceOracle",
          "type": "address"
        },
        {
          "internalType": "bytes4",
          "name": "getPriceMethod",
          "type": "bytes4"
        },
        {
          "internalType": "bytes",
          "name": "getPriceData",
          "type": "bytes"
        }
      ],
      "name": "addAsset",
      "outputs": [],
      "stateMutability": "nonpayable",
      "type": "function"
    },
    {
      "inputs": [
        {
          "internalType": "address",
          "name": "",
          "type": "address"
        }
      ],
      "name": "allocationRates",
      "outputs": [
        {
          "internalType": "uint256",
          "name": "",
          "type": "uint256"
        }
      ],
      "stateMutability": "view",
      "type": "function"
    },
    {
      "inputs": [
        {
          "internalType": "bytes32",
          "name": "",
          "type": "bytes32"
        }
      ],
      "name": "approvedCalls",
      "outputs": [
        {
          "internalType": "bool",
          "name": "",
          "type": "bool"
        }
      ],
      "stateMutability": "view",
      "type": "function"
    },
    {
      "inputs": [],
      "name": "asset",
      "outputs": [
        {
          "internalType": "address",
          "name": "",
          "type": "address"
        }
      ],
      "stateMutability": "view",
      "type": "function"
    },
    {
      "inputs": [
        {
          "internalType": "address",
          "name": "_target",
          "type": "address"
        },
        {
          "internalType": "bytes4",
          "name": "_selector",
          "type": "bytes4"
        },
        {
          "internalType": "bytes",
          "name": "_data",
          "type": "bytes"
        },
        {
          "internalType": "bytes32",
          "name": "callId",
          "type": "bytes32"
        }
      ],
      "name": "call",
      "outputs": [],
      "stateMutability": "nonpayable",
      "type": "function"
    },
    {
      "inputs": [
        {
          "internalType": "bytes32",
          "name": "",
          "type": "bytes32"
        }
      ],
      "name": "calls",
      "outputs": [
        {
          "internalType": "address",
          "name": "target",
          "type": "address"
        },
        {
          "internalType": "bytes4",
          "name": "selector",
          "type": "bytes4"
        },
        {
          "internalType": "bytes",
          "name": "conditions",
          "type": "bytes"
        },
        {
          "internalType": "bytes",
          "name": "mask",
          "type": "bytes"
        }
      ],
      "stateMutability": "view",
      "type": "function"
    },
    {
      "inputs": [],
      "name": "curator",
      "outputs": [
        {
          "internalType": "address",
          "name": "",
          "type": "address"
        }
      ],
      "stateMutability": "view",
      "type": "function"
    },
    {
      "inputs": [
        {
          "internalType": "address",
          "name": "_target",
          "type": "address"
        },
        {
          "internalType": "bytes4",
          "name": "_selector",
          "type": "bytes4"
        },
        {
          "internalType": "bytes",
          "name": "_conditions",
          "type": "bytes"
        },
        {
          "internalType": "bytes",
          "name": "_mask",
          "type": "bytes"
        }
      ],
      "name": "getCallId",
      "outputs": [
        {
          "internalType": "bytes32",
          "name": "",
          "type": "bytes32"
        }
      ],
      "stateMutability": "pure",
      "type": "function"
    },
    {
      "inputs": [
        {
          "internalType": "address",
          "name": "_asset",
          "type": "address"
        }
      ],
      "name": "initialize",
      "outputs": [],
      "stateMutability": "nonpayable",
      "type": "function"
    },
    {
      "inputs": [
        {
          "internalType": "address",
          "name": "operator",
          "type": "address"
        },
        {
          "internalType": "address",
          "name": "from",
          "type": "address"
        },
        {
          "internalType": "uint256",
          "name": "id",
          "type": "uint256"
        },
        {
          "internalType": "uint256",
          "name": "value",
          "type": "uint256"
        },
        {
          "internalType": "bytes",
          "name": "data",
          "type": "bytes"
        }
      ],
      "name": "onERC1155Received",
      "outputs": [
        {
          "internalType": "bytes4",
          "name": "",
          "type": "bytes4"
        }
      ],
      "stateMutability": "nonpayable",
      "type": "function"
    },
    {
      "inputs": [],
      "name": "owner",
      "outputs": [
        {
          "internalType": "address",
          "name": "",
          "type": "address"
        }
      ],
      "stateMutability": "view",
      "type": "function"
    },
    {
      "inputs": [
        {
          "internalType": "address",
          "name": "target",
          "type": "address"
        },
        {
          "internalType": "uint256",
          "name": "rate",
          "type": "uint256"
        }
      ],
      "name": "setAllocationRate",
      "outputs": [],
      "stateMutability": "nonpayable",
      "type": "function"
    },
    {
      "inputs": [
        {
          "internalType": "address",
          "name": "valuationModule",
          "type": "address"
        }
      ],
      "name": "setValuationModule",
      "outputs": [],
      "stateMutability": "nonpayable",
      "type": "function"
    },
    {
      "inputs": [
        {
          "internalType": "address",
          "name": "_vault",
          "type": "address"
        }
      ],
      "name": "setVault",
      "outputs": [],
      "stateMutability": "nonpayable",
      "type": "function"
    },
    {
      "inputs": [],
      "name": "totalAllocationRate",
      "outputs": [
        {
          "internalType": "uint256",
          "name": "",
          "type": "uint256"
        }
      ],
      "stateMutability": "view",
      "type": "function"
    },
    {
      "inputs": [
        {
          "internalType": "uint256",
          "name": "assets",
          "type": "uint256"
        }
      ],
      "name": "useDeposit",
      "outputs": [],
      "stateMutability": "nonpayable",
      "type": "function"
    },
    {
      "inputs": [],
      "name": "vault",
      "outputs": [
        {
          "internalType": "address",
          "name": "",
          "type": "address"
        }
      ],
      "stateMutability": "view",
      "type": "function"
    },
    {
      "inputs": [
        {
          "internalType": "uint256",
          "name": "assets",
          "type": "uint256"
        }
      ],
      "name": "withdraw0",
      "outputs": [],
      "stateMutability": "nonpayable",
      "type": "function"
    },
    {
      "inputs": [
        {
          "internalType": "uint256",
          "name": "shares",
          "type": "uint256"
        }
      ],
      "name": "withdraw1",
      "outputs": [],
      "stateMutability": "nonpayable",
      "type": "function"
    }
  ],
  "bytecode": "0x608060405234801561001057600080fd5b50613baf806100206000396000f3fe608060405234801561001057600080fd5b506004361061012c5760003560e01c8063b583d52b116100ad578063e66f53b711610071578063e66f53b71461031a578063f23a6e6114610338578063f72e903f14610368578063f9d4a3d114610384578063fbfa77cf146103b45761012c565b8063b583d52b1461024f578063c4d66de81461026b578063ca60cf4514610287578063ce710d6e146102b7578063cff10265146102e75761012c565b80636817031b116100f45780636817031b146101bf5780637b7cb441146101db5780638da5cb5b146101f75780639041a5651461021557806393dc8c7e146102335761012c565b80630f87a044146101315780632488e2031461014d57806327be0ffe1461016957806338d52e0f14610185578063679373c7146101a3575b600080fd5b61014b60048036038101906101469190612620565b6103d2565b005b61016760048036038101906101629190612849565b61060f565b005b610183600480360381019061017e91906128e8565b6108df565b005b61018d610a26565b60405161019a9190612924565b60405180910390f35b6101bd60048036038101906101b8919061293f565b610a4c565b005b6101d960048036038101906101d491906128e8565b610c9f565b005b6101f560048036038101906101f0919061297f565b610ee8565b005b6101ff6110b1565b60405161020c9190612924565b60405180910390f35b61021d6110d7565b60405161022a9190612a25565b60405180910390f35b61024d60048036038101906102489190612620565b6110dd565b005b61026960048036038101906102649190612620565b6117c0565b005b610285600480360381019061028091906128e8565b611b5e565b005b6102a1600480360381019061029c9190612a76565b611cb5565b6040516102ae9190612abe565b60405180910390f35b6102d160048036038101906102cc9190612849565b611cd5565b6040516102de9190612ae8565b60405180910390f35b61030160048036038101906102fc9190612a76565b611d0e565b6040516103119493929190612b91565b60405180910390f35b610322611e7b565b60405161032f9190612924565b60405180910390f35b610352600480360381019061034d9190612c44565b611ea1565b60405161035f9190612cde565b60405180910390f35b610382600480360381019061037d9190612cf9565b611ed0565b005b61039e600480360381019061039991906128e8565b61259a565b6040516103ab9190612a25565b60405180910390f35b6103bc6125b2565b6040516103c99190612924565b60405180910390f35b600160009054906101000a900473ffffffffffffffffffffffffffffffffffffffff1673ffffffffffffffffffffffffffffffffffffffff163373ffffffffffffffffffffffffffffffffffffffff16146104885733600160009054906101000a900473ffffffffffffffffffffffffffffffffffffffff166040517f295a81c100000000000000000000000000000000000000000000000000000000815260040161047f929190612d7c565b60405180910390fd5b600081116104cb576040517f08c379a00000000000000000000000000000000000000000000000000000000081526004016104c290612e02565b60405180910390fd5b6000733eaf7d86eaee61d1c25ba4a68c2b5e291f209dc5905060008173ffffffffffffffffffffffffffffffffffffffff16637d41c86e60e01b84303060405160240161051a93929190612e22565b604051602081830303815290604052907bffffffffffffffffffffffffffffffffffffffffffffffffffffffff19166020820180517bffffffffffffffffffffffffffffffffffffffffffffffffffffffff83818316178352505050506040516105849190612e95565b6000604051808303816000865af19150503d80600081146105c1576040519150601f19603f3d011682016040523d82523d6000602084013e6105c6565b606091505b505090508061060a576040517f08c379a000000000000000000000000000000000000000000000000000000000815260040161060190612ef8565b60405180910390fd5b505050565b600160009054906101000a900473ffffffffffffffffffffffffffffffffffffffff1673ffffffffffffffffffffffffffffffffffffffff163373ffffffffffffffffffffffffffffffffffffffff16146106c55733600160009054906101000a900473ffffffffffffffffffffffffffffffffffffffff166040517f295a81c10000000000000000000000000000000000000000000000000000000081526004016106bc929190612d7c565b60405180910390fd5b60006106d385858585611cd5565b90506004600082815260200190815260200160002060009054906101000a900460ff161561073857806040517f51d6cb7500000000000000000000000000000000000000000000000000000000815260040161072f9190612ae8565b60405180910390fd5b60016004600083815260200190815260200160002060006101000a81548160ff02191690831515021790555060405180608001604052808673ffffffffffffffffffffffffffffffffffffffff168152602001857bffffffffffffffffffffffffffffffffffffffffffffffffffffffff19168152602001848152602001838152506005600083815260200190815260200160002060008201518160000160006101000a81548173ffffffffffffffffffffffffffffffffffffffff021916908373ffffffffffffffffffffffffffffffffffffffff16021790555060208201518160000160146101000a81548163ffffffff021916908360e01c0217905550604082015181600101908161084d9190613124565b5060608201518160020190816108639190613124565b50905050837bffffffffffffffffffffffffffffffffffffffffffffffffffffffff19168573ffffffffffffffffffffffffffffffffffffffff16827f1bb78cd0b2c3a1fb051d9bb8235bbce618527314d3e3327711d222bfee9814af86866040516108d09291906131f6565b60405180910390a45050505050565b600160009054906101000a900473ffffffffffffffffffffffffffffffffffffffff1673ffffffffffffffffffffffffffffffffffffffff163373ffffffffffffffffffffffffffffffffffffffff16146109955733600160009054906101000a900473ffffffffffffffffffffffffffffffffffffffff166040517f295a81c100000000000000000000000000000000000000000000000000000000815260040161098c929190612d7c565b60405180910390fd5b60008054906101000a900473ffffffffffffffffffffffffffffffffffffffff1673ffffffffffffffffffffffffffffffffffffffff16638086ac5f8260016040518363ffffffff1660e01b81526004016109f1929190613268565b600060405180830381600087803b158015610a0b57600080fd5b505af1158015610a1f573d6000803e3d6000fd5b5050505050565b600360009054906101000a900473ffffffffffffffffffffffffffffffffffffffff1681565b600260009054906101000a900473ffffffffffffffffffffffffffffffffffffffff1673ffffffffffffffffffffffffffffffffffffffff163373ffffffffffffffffffffffffffffffffffffffff1614158015610af85750600160009054906101000a900473ffffffffffffffffffffffffffffffffffffffff1673ffffffffffffffffffffffffffffffffffffffff163373ffffffffffffffffffffffffffffffffffffffff1614155b15610b5e5733600260009054906101000a900473ffffffffffffffffffffffffffffffffffffffff166040517f295a81c1000000000000000000000000000000000000000000000000000000008152600401610b55929190612d7c565b60405180910390fd5b606481600760008573ffffffffffffffffffffffffffffffffffffffff1673ffffffffffffffffffffffffffffffffffffffff16815260200190815260200160002054600654610bae91906132c0565b610bb891906132f4565b1115610bf9576040517f08c379a0000000000000000000000000000000000000000000000000000000008152600401610bf09061339a565b60405180910390fd5b80600760008473ffffffffffffffffffffffffffffffffffffffff1673ffffffffffffffffffffffffffffffffffffffff16815260200190815260200160002054600654610c4791906132c0565b610c5191906132f4565b60068190555080600760008473ffffffffffffffffffffffffffffffffffffffff1673ffffffffffffffffffffffffffffffffffffffff168152602001908152602001600020819055505050565b600160009054906101000a900473ffffffffffffffffffffffffffffffffffffffff1673ffffffffffffffffffffffffffffffffffffffff163373ffffffffffffffffffffffffffffffffffffffff1614610d555733600160009054906101000a900473ffffffffffffffffffffffffffffffffffffffff166040517f295a81c1000000000000000000000000000000000000000000000000000000008152600401610d4c929190612d7c565b60405180910390fd5b600073ffffffffffffffffffffffffffffffffffffffff1660008054906101000a900473ffffffffffffffffffffffffffffffffffffffff1673ffffffffffffffffffffffffffffffffffffffff1614610de4576040517f08c379a0000000000000000000000000000000000000000000000000000000008152600401610ddb90613406565b60405180910390fd5b806000806101000a81548173ffffffffffffffffffffffffffffffffffffffff021916908373ffffffffffffffffffffffffffffffffffffffff160217905550600360009054906101000a900473ffffffffffffffffffffffffffffffffffffffff1673ffffffffffffffffffffffffffffffffffffffff1663095ea7b3827fffffffffffffffffffffffffffffffffffffffffffffffffffffffffffffffff6040518363ffffffff1660e01b8152600401610ea1929190613426565b6020604051808303816000875af1158015610ec0573d6000803e3d6000fd5b505050506040513d601f19601f82011682018060405250810190610ee4919061347b565b5050565b600160009054906101000a900473ffffffffffffffffffffffffffffffffffffffff1673ffffffffffffffffffffffffffffffffffffffff163373ffffffffffffffffffffffffffffffffffffffff1614610f9e5733600160009054906101000a900473ffffffffffffffffffffffffffffffffffffffff166040517f295a81c1000000000000000000000000000000000000000000000000000000008152600401610f95929190612d7c565b60405180910390fd5b60008060009054906101000a900473ffffffffffffffffffffffffffffffffffffffff1673ffffffffffffffffffffffffffffffffffffffff1663b2494df36040518163ffffffff1660e01b815260040160a060405180830381865afa15801561100c573d6000803e3d6000fd5b505050506040513d601f19601f8201168201806040525081019061103091906134bd565b5050509150508073ffffffffffffffffffffffffffffffffffffffff16637b7cb44187878787876040518663ffffffff1660e01b8152600401611077959493929190613538565b600060405180830381600087803b15801561109157600080fd5b505af11580156110a5573d6000803e3d6000fd5b50505050505050505050565b600160009054906101000a900473ffffffffffffffffffffffffffffffffffffffff1681565b60065481565b60008054906101000a900473ffffffffffffffffffffffffffffffffffffffff1673ffffffffffffffffffffffffffffffffffffffff163373ffffffffffffffffffffffffffffffffffffffff161461118f573360008054906101000a900473ffffffffffffffffffffffffffffffffffffffff166040517f295a81c1000000000000000000000000000000000000000000000000000000008152600401611186929190612d7c565b60405180910390fd5b600081116111d2576040517f08c379a00000000000000000000000000000000000000000000000000000000081526004016111c990612e02565b60405180910390fd5b6000733e59a31363e2ad014dcbc521c4a0d5757d9f3402905060006064600760008473ffffffffffffffffffffffffffffffffffffffff1673ffffffffffffffffffffffffffffffffffffffff168152602001908152602001600020548461123a9190613592565b6112449190613603565b90506000600360009054906101000a900473ffffffffffffffffffffffffffffffffffffffff1673ffffffffffffffffffffffffffffffffffffffff1663095ea7b360e01b848460405160240161129c929190613426565b604051602081830303815290604052907bffffffffffffffffffffffffffffffffffffffffffffffffffffffff19166020820180517bffffffffffffffffffffffffffffffffffffffffffffffffffffffff83818316178352505050506040516113069190612e95565b6000604051808303816000865af19150503d8060008114611343576040519150601f19603f3d011682016040523d82523d6000602084013e611348565b606091505b505090508061138c576040517f08c379a000000000000000000000000000000000000000000000000000000000815260040161138390613680565b60405180910390fd5b60008373ffffffffffffffffffffffffffffffffffffffff1663e8eda9df60e01b600360009054906101000a900473ffffffffffffffffffffffffffffffffffffffff16853060006040516024016113e794939291906136e8565b604051602081830303815290604052907bffffffffffffffffffffffffffffffffffffffffffffffffffffffff19166020820180517bffffffffffffffffffffffffffffffffffffffffffffffffffffffff83818316178352505050506040516114519190612e95565b6000604051808303816000865af19150503d806000811461148e576040519150601f19603f3d011682016040523d82523d6000602084013e611493565b606091505b50509050806114d7576040517f08c379a00000000000000000000000000000000000000000000000000000000081526004016114ce90613779565b60405180910390fd5b50506000732a68c98bd43aa24331396f29166aef2bfd51343f905060006064600760008473ffffffffffffffffffffffffffffffffffffffff1673ffffffffffffffffffffffffffffffffffffffff16815260200190815260200160002054866115419190613592565b61154b9190613603565b90506000600360009054906101000a900473ffffffffffffffffffffffffffffffffffffffff1673ffffffffffffffffffffffffffffffffffffffff1663095ea7b360e01b84846040516024016115a3929190613426565b604051602081830303815290604052907bffffffffffffffffffffffffffffffffffffffffffffffffffffffff19166020820180517bffffffffffffffffffffffffffffffffffffffffffffffffffffffff838183161783525050505060405161160d9190612e95565b6000604051808303816000865af19150503d806000811461164a576040519150601f19603f3d011682016040523d82523d6000602084013e61164f565b606091505b5050905080611693576040517f08c379a000000000000000000000000000000000000000000000000000000000815260040161168a906137e5565b60405180910390fd5b60008373ffffffffffffffffffffffffffffffffffffffff16636e553f6560e01b84306040516024016116c7929190613805565b604051602081830303815290604052907bffffffffffffffffffffffffffffffffffffffffffffffffffffffff19166020820180517bffffffffffffffffffffffffffffffffffffffffffffffffffffffff83818316178352505050506040516117319190612e95565b6000604051808303816000865af19150503d806000811461176e576040519150601f19603f3d011682016040523d82523d6000602084013e611773565b606091505b50509050806117b7576040517f08c379a00000000000000000000000000000000000000000000000000000000081526004016117ae9061387a565b60405180910390fd5b50505050505050565b600160009054906101000a900473ffffffffffffffffffffffffffffffffffffffff1673ffffffffffffffffffffffffffffffffffffffff163373ffffffffffffffffffffffffffffffffffffffff16146118765733600160009054906101000a900473ffffffffffffffffffffffffffffffffffffffff166040517f295a81c100000000000000000000000000000000000000000000000000000000815260040161186d929190612d7c565b60405180910390fd5b600081116118b9576040517f08c379a00000000000000000000000000000000000000000000000000000000081526004016118b090612e02565b60405180910390fd5b6000733e59a31363e2ad014dcbc521c4a0d5757d9f34029050600073ff8309b9e99bfd2d4021bc71a362abd93dbd4785905060008173ffffffffffffffffffffffffffffffffffffffff1663095ea7b360e01b848660405160240161191f929190613426565b604051602081830303815290604052907bffffffffffffffffffffffffffffffffffffffffffffffffffffffff19166020820180517bffffffffffffffffffffffffffffffffffffffffffffffffffffffff83818316178352505050506040516119899190612e95565b6000604051808303816000865af19150503d80600081146119c6576040519150601f19603f3d011682016040523d82523d6000602084013e6119cb565b606091505b5050905080611a0f576040517f08c379a0000000000000000000000000000000000000000000000000000000008152600401611a06906138e6565b60405180910390fd5b60008373ffffffffffffffffffffffffffffffffffffffff166369328dec60e01b600360009054906101000a900473ffffffffffffffffffffffffffffffffffffffff168730604051602401611a6793929190613906565b604051602081830303815290604052907bffffffffffffffffffffffffffffffffffffffffffffffffffffffff19166020820180517bffffffffffffffffffffffffffffffffffffffffffffffffffffffff8381831617835250505050604051611ad19190612e95565b6000604051808303816000865af19150503d8060008114611b0e576040519150601f19603f3d011682016040523d82523d6000602084013e611b13565b606091505b5050905080611b57576040517f08c379a0000000000000000000000000000000000000000000000000000000008152600401611b4e90612ef8565b60405180910390fd5b5050505050565b600073ffffffffffffffffffffffffffffffffffffffff16600160009054906101000a900473ffffffffffffffffffffffffffffffffffffffff1673ffffffffffffffffffffffffffffffffffffffff1614611bef576040517f08c379a0000000000000000000000000000000000000000000000000000000008152600401611be690613989565b60405180910390fd5b33600160006101000a81548173ffffffffffffffffffffffffffffffffffffffff021916908373ffffffffffffffffffffffffffffffffffffffff16021790555033600260006101000a81548173ffffffffffffffffffffffffffffffffffffffff021916908373ffffffffffffffffffffffffffffffffffffffff16021790555080600360006101000a81548173ffffffffffffffffffffffffffffffffffffffff021916908373ffffffffffffffffffffffffffffffffffffffff16021790555050565b60046020528060005260406000206000915054906101000a900460ff1681565b600084848484604051602001611cee9493929190612b91565b604051602081830303815290604052805190602001209050949350505050565b60056020528060005260406000206000915090508060000160009054906101000a900473ffffffffffffffffffffffffffffffffffffffff16908060000160149054906101000a900460e01b90806001018054611d6a90612f47565b80601f0160208091040260200160405190810160405280929190818152602001828054611d9690612f47565b8015611de35780601f10611db857610100808354040283529160200191611de3565b820191906000526020600020905b815481529060010190602001808311611dc657829003601f168201915b505050505090806002018054611df890612f47565b80601f0160208091040260200160405190810160405280929190818152602001828054611e2490612f47565b8015611e715780601f10611e4657610100808354040283529160200191611e71565b820191906000526020600020905b815481529060010190602001808311611e5457829003601f168201915b5050505050905084565b600260009054906101000a900473ffffffffffffffffffffffffffffffffffffffff1681565b60007ff23a6e612e1ff4830e658fe43f4e3cb4a5f8170bd5d9e69fb5d7a7fa9e4fdf9790509695505050505050565b600260009054906101000a900473ffffffffffffffffffffffffffffffffffffffff1673ffffffffffffffffffffffffffffffffffffffff163373ffffffffffffffffffffffffffffffffffffffff1614158015611f7c5750600160009054906101000a900473ffffffffffffffffffffffffffffffffffffffff1673ffffffffffffffffffffffffffffffffffffffff163373ffffffffffffffffffffffffffffffffffffffff1614155b15611fe25733600260009054906101000a900473ffffffffffffffffffffffffffffffffffffffff166040517f295a81c1000000000000000000000000000000000000000000000000000000008152600401611fd9929190612d7c565b60405180910390fd5b6004600082815260200190815260200160002060009054906101000a900460ff1661204457806040517fcb2fc92700000000000000000000000000000000000000000000000000000000815260040161203b9190612ae8565b60405180910390fd5b6000600560008381526020019081526020016000206040518060800160405290816000820160009054906101000a900473ffffffffffffffffffffffffffffffffffffffff1673ffffffffffffffffffffffffffffffffffffffff1673ffffffffffffffffffffffffffffffffffffffff1681526020016000820160149054906101000a900460e01b7bffffffffffffffffffffffffffffffffffffffffffffffffffffffff19167bffffffffffffffffffffffffffffffffffffffffffffffffffffffff1916815260200160018201805461211f90612f47565b80601f016020809104026020016040519081016040528092919081815260200182805461214b90612f47565b80156121985780601f1061216d57610100808354040283529160200191612198565b820191906000526020600020905b81548152906001019060200180831161217b57829003601f168201915b505050505081526020016002820180546121b190612f47565b80601f01602080910402602001604051908101604052809291908181526020018280546121dd90612f47565b801561222a5780601f106121ff5761010080835404028352916020019161222a565b820191906000526020600020905b81548152906001019060200180831161220d57829003601f168201915b5050505050815250509050806000015173ffffffffffffffffffffffffffffffffffffffff168573ffffffffffffffffffffffffffffffffffffffff16146122b157818582600001516040517f51ee91a20000000000000000000000000000000000000000000000000000000081526004016122a8939291906139a9565b60405180910390fd5b80602001517bffffffffffffffffffffffffffffffffffffffffffffffffffffffff1916847bffffffffffffffffffffffffffffffffffffffffffffffffffffffff19161461233f57818482602001516040517fdccdb7f3000000000000000000000000000000000000000000000000000000008152600401612336939291906139e0565b60405180910390fd5b73__$f5f62d6bd029d2a69a0c77f3706b7d82d9$__63202ede0c84836040015184606001516040518463ffffffff1660e01b815260040161238293929190613a61565b602060405180830381865af415801561239f573d6000803e3d6000fd5b505050506040513d601f19601f820116820180604052508101906123c3919061347b565b612408578184846040517fd27b29b20000000000000000000000000000000000000000000000000000000081526004016123ff93929190613aad565b60405180910390fd5b60008573ffffffffffffffffffffffffffffffffffffffff1685856040516024016124339190613aeb565b604051602081830303815290604052907bffffffffffffffffffffffffffffffffffffffffffffffffffffffff19166020820180517bffffffffffffffffffffffffffffffffffffffffffffffffffffffff838183161783525050505060405161249d9190612e95565b6000604051808303816000865af19150503d80600081146124da576040519150601f19603f3d011682016040523d82523d6000602084013e6124df565b606091505b5050905080612523576040517f08c379a000000000000000000000000000000000000000000000000000000000815260040161251a90613b59565b60405180910390fd5b847bffffffffffffffffffffffffffffffffffffffffffffffffffffffff19168673ffffffffffffffffffffffffffffffffffffffff16847f73c10c274679cd53b5bfc4e41a028729e9c218289200b252cd4b692e3b73e0a88760405161258a9190613aeb565b60405180910390a4505050505050565b60076020528060005260406000206000915090505481565b60008054906101000a900473ffffffffffffffffffffffffffffffffffffffff1681565b6000604051905090565b600080fd5b600080fd5b6000819050919050565b6125fd816125ea565b811461260857600080fd5b50565b60008135905061261a816125f4565b92915050565b600060208284031215612636576126356125e0565b5b60006126448482850161260b565b91505092915050565b600073ffffffffffffffffffffffffffffffffffffffff82169050919050565b60006126788261264d565b9050919050565b6126888161266d565b811461269357600080fd5b50565b6000813590506126a58161267f565b92915050565b60007fffffffff0000000000000000000000000000000000000000000000000000000082169050919050565b6126e0816126ab565b81146126eb57600080fd5b50565b6000813590506126fd816126d7565b92915050565b600080fd5b600080fd5b6000601f19601f8301169050919050565b7f4e487b7100000000000000000000000000000000000000000000000000000000600052604160045260246000fd5b6127568261270d565b810181811067ffffffffffffffff821117156127755761277461271e565b5b80604052505050565b60006127886125d6565b9050612794828261274d565b919050565b600067ffffffffffffffff8211156127b4576127b361271e565b5b6127bd8261270d565b9050602081019050919050565b82818337600083830152505050565b60006127ec6127e784612799565b61277e565b90508281526020810184848401111561280857612807612708565b5b6128138482856127ca565b509392505050565b600082601f8301126128305761282f612703565b5b81356128408482602086016127d9565b91505092915050565b60008060008060808587031215612863576128626125e0565b5b600061287187828801612696565b9450506020612882878288016126ee565b935050604085013567ffffffffffffffff8111156128a3576128a26125e5565b5b6128af8782880161281b565b925050606085013567ffffffffffffffff8111156128d0576128cf6125e5565b5b6128dc8782880161281b565b91505092959194509250565b6000602082840312156128fe576128fd6125e0565b5b600061290c84828501612696565b91505092915050565b61291e8161266d565b82525050565b60006020820190506129396000830184612915565b92915050565b60008060408385031215612956576129556125e0565b5b600061296485828601612696565b92505060206129758582860161260b565b9150509250929050565b600080600080600060a0868803121561299b5761299a6125e0565b5b60006129a988828901612696565b95505060206129ba8882890161260b565b94505060406129cb88828901612696565b93505060606129dc888289016126ee565b925050608086013567ffffffffffffffff8111156129fd576129fc6125e5565b5b612a098882890161281b565b9150509295509295909350565b612a1f816125ea565b82525050565b6000602082019050612a3a6000830184612a16565b92915050565b6000819050919050565b612a5381612a40565b8114612a5e57600080fd5b50565b600081359050612a7081612a4a565b92915050565b600060208284031215612a8c57612a8b6125e0565b5b6000612a9a84828501612a61565b91505092915050565b60008115159050919050565b612ab881612aa3565b82525050565b6000602082019050612ad36000830184612aaf565b92915050565b612ae281612a40565b82525050565b6000602082019050612afd6000830184612ad9565b92915050565b612b0c816126ab565b82525050565b600081519050919050565b600082825260208201905092915050565b60005b83811015612b4c578082015181840152602081019050612b31565b60008484015250505050565b6000612b6382612b12565b612b6d8185612b1d565b9350612b7d818560208601612b2e565b612b868161270d565b840191505092915050565b6000608082019050612ba66000830187612915565b612bb36020830186612b03565b8181036040830152612bc58185612b58565b90508181036060830152612bd98184612b58565b905095945050505050565b600080fd5b600080fd5b60008083601f840112612c0457612c03612703565b5b8235905067ffffffffffffffff811115612c2157612c20612be4565b5b602083019150836001820283011115612c3d57612c3c612be9565b5b9250929050565b60008060008060008060a08789031215612c6157612c606125e0565b5b6000612c6f89828a01612696565b9650506020612c8089828a01612696565b9550506040612c9189828a0161260b565b9450506060612ca289828a0161260b565b935050608087013567ffffffffffffffff811115612cc357612cc26125e5565b5b612ccf89828a01612bee565b92509250509295509295509295565b6000602082019050612cf36000830184612b03565b92915050565b60008060008060808587031215612d1357612d126125e0565b5b6000612d2187828801612696565b9450506020612d32878288016126ee565b935050604085013567ffffffffffffffff811115612d5357612d526125e5565b5b612d5f8782880161281b565b9250506060612d7087828801612a61565b91505092959194509250565b6000604082019050612d916000830185612915565b612d9e6020830184612915565b9392505050565b600082825260208201905092915050565b7f417373657473206d7573742062652067726561746572207468616e2030000000600082015250565b6000612dec601d83612da5565b9150612df782612db6565b602082019050919050565b60006020820190508181036000830152612e1b81612ddf565b9050919050565b6000606082019050612e376000830186612a16565b612e446020830185612915565b612e516040830184612915565b949350505050565b600081905092915050565b6000612e6f82612b12565b612e798185612e59565b9350612e89818560208601612b2e565b80840191505092915050565b6000612ea18284612e64565b915081905092915050565b7f57697468647261772063616c6c206661696c6564000000000000000000000000600082015250565b6000612ee2601483612da5565b9150612eed82612eac565b602082019050919050565b60006020820190508181036000830152612f1181612ed5565b9050919050565b7f4e487b7100000000000000000000000000000000000000000000000000000000600052602260045260246000fd5b60006002820490506001821680612f5f57607f821691505b602082108103612f7257612f71612f18565b5b50919050565b60008190508160005260206000209050919050565b60006020601f8301049050919050565b600082821b905092915050565b600060088302612fda7fffffffffffffffffffffffffffffffffffffffffffffffffffffffffffffffff82612f9d565b612fe48683612f9d565b95508019841693508086168417925050509392505050565b6000819050919050565b600061302161301c613017846125ea565b612ffc565b6125ea565b9050919050565b6000819050919050565b61303b83613006565b61304f61304782613028565b848454612faa565b825550505050565b600090565b613064613057565b61306f818484613032565b505050565b5b818110156130935761308860008261305c565b600181019050613075565b5050565b601f8211156130d8576130a981612f78565b6130b284612f8d565b810160208510156130c1578190505b6130d56130cd85612f8d565b830182613074565b50505b505050565b600082821c905092915050565b60006130fb600019846008026130dd565b1980831691505092915050565b600061311483836130ea565b9150826002028217905092915050565b61312d82612b12565b67ffffffffffffffff8111156131465761314561271e565b5b6131508254612f47565b61315b828285613097565b600060209050601f83116001811461318e576000841561317c578287015190505b6131868582613108565b8655506131ee565b601f19841661319c86612f78565b60005b828110156131c45784890151825560018201915060208501945060208101905061319f565b868310156131e157848901516131dd601f8916826130ea565b8355505b6001600288020188555050505b505050505050565b600060408201905081810360008301526132108185612b58565b905081810360208301526132248184612b58565b90509392505050565b6000819050919050565b600061325261324d6132488461322d565b612ffc565b6125ea565b9050919050565b61326281613237565b82525050565b600060408201905061327d6000830185612915565b61328a6020830184613259565b9392505050565b7f4e487b7100000000000000000000000000000000000000000000000000000000600052601160045260246000fd5b60006132cb826125ea565b91506132d6836125ea565b92508282039050818111156132ee576132ed613291565b5b92915050565b60006132ff826125ea565b915061330a836125ea565b925082820190508082111561332257613321613291565b5b92915050565b7f546f74616c20616c6c6f636174696f6e2072617465206578636565647320313060008201527f3025000000000000000000000000000000000000000000000000000000000000602082015250565b6000613384602283612da5565b915061338f82613328565b604082019050919050565b600060208201905081810360008301526133b381613377565b9050919050565b7f5661756c7420616c726561647920736574000000000000000000000000000000600082015250565b60006133f0601183612da5565b91506133fb826133ba565b602082019050919050565b6000602082019050818103600083015261341f816133e3565b9050919050565b600060408201905061343b6000830185612915565b6134486020830184612a16565b9392505050565b61345881612aa3565b811461346357600080fd5b50565b6000815190506134758161344f565b92915050565b600060208284031215613491576134906125e0565b5b600061349f84828501613466565b91505092915050565b6000815190506134b78161267f565b92915050565b600080600080600060a086880312156134d9576134d86125e0565b5b60006134e7888289016134a8565b95505060206134f8888289016134a8565b9450506040613509888289016134a8565b935050606061351a888289016134a8565b925050608061352b888289016134a8565b9150509295509295909350565b600060a08201905061354d6000830188612915565b61355a6020830187612a16565b6135676040830186612915565b6135746060830185612b03565b81810360808301526135868184612b58565b90509695505050505050565b600061359d826125ea565b91506135a8836125ea565b92508282026135b6816125ea565b915082820484148315176135cd576135cc613291565b5b5092915050565b7f4e487b7100000000000000000000000000000000000000000000000000000000600052601260045260246000fd5b600061360e826125ea565b9150613619836125ea565b925082613629576136286135d4565b5b828204905092915050565b7f417070726f7665302063616c6c206661696c6564000000000000000000000000600082015250565b600061366a601483612da5565b915061367582613634565b602082019050919050565b600060208201905081810360008301526136998161365d565b9050919050565b6000819050919050565b600060ff82169050919050565b60006136d26136cd6136c8846136a0565b612ffc565b6136aa565b9050919050565b6136e2816136b7565b82525050565b60006080820190506136fd6000830187612915565b61370a6020830186612a16565b6137176040830185612915565b61372460608301846136d9565b95945050505050565b7f4465706f736974302063616c6c206661696c6564000000000000000000000000600082015250565b6000613763601483612da5565b915061376e8261372d565b602082019050919050565b6000602082019050818103600083015261379281613756565b9050919050565b7f417070726f7665312063616c6c206661696c6564000000000000000000000000600082015250565b60006137cf601483612da5565b91506137da82613799565b602082019050919050565b600060208201905081810360008301526137fe816137c2565b9050919050565b600060408201905061381a6000830185612a16565b6138276020830184612915565b9392505050565b7f4465706f736974312063616c6c206661696c6564000000000000000000000000600082015250565b6000613864601483612da5565b915061386f8261382e565b602082019050919050565b6000602082019050818103600083015261389381613857565b9050919050565b7f417070726f76652063616c6c206661696c656400000000000000000000000000600082015250565b60006138d0601383612da5565b91506138db8261389a565b602082019050919050565b600060208201905081810360008301526138ff816138c3565b9050919050565b600060608201905061391b6000830186612915565b6139286020830185612a16565b6139356040830184612915565b949350505050565b7f416c726561647920696e697469616c697a656400000000000000000000000000600082015250565b6000613973601383612da5565b915061397e8261393d565b602082019050919050565b600060208201905081810360008301526139a281613966565b9050919050565b60006060820190506139be6000830186612ad9565b6139cb6020830185612915565b6139d86040830184612915565b949350505050565b60006060820190506139f56000830186612ad9565b613a026020830185612b03565b613a0f6040830184612b03565b949350505050565b600082825260208201905092915050565b6000613a3382612b12565b613a3d8185613a17565b9350613a4d818560208601612b2e565b613a568161270d565b840191505092915050565b60006060820190508181036000830152613a7b8186613a28565b90508181036020830152613a8f8185613a28565b90508181036040830152613aa38184613a28565b9050949350505050565b6000606082019050613ac26000830186612ad9565b613acf6020830185612b03565b8181036040830152613ae18184612b58565b9050949350505050565b60006020820190508181036000830152613b058184612b58565b905092915050565b7f43616c6c206661696c6564000000000000000000000000000000000000000000600082015250565b6000613b43600b83612da5565b9150613b4e82613b0d565b602082019050919050565b60006020820190508181036000830152613b7281613b36565b905091905056fea264697066735822122010539e89a435c9f4909501db44101d2694c1a36cba80a4614cdd49e1046d728164736f6c63430008160033",
  "linkReferences": {
    "contracts/libraries/BytesLib.sol": {
      "BytesLib": [
        {
          "length": 20,
          "start": 9057
        }
      ]
    }
  },
  "deployedLinkReferences": {
    "contracts/libraries/BytesLib.sol": {
      "BytesLib": [
        {
          "length": 20,
          "start": 9025
        }
      ]
    }
  }
}