{
  "_format": "hh-sol-artifact-1",
  "contractName": "Valuation",
  "sourceName": "contracts/ValuationModule.sol",
  "abi": [
    {
      "inputs": [
        {
          "internalType": "address",
          "name": "_vault",
          "type": "address"
        }
      ],
      "stateMutability": "nonpayable",
      "type": "constructor"
    },
    {
      "inputs": [
        {
          "internalType": "address",
          "name": "asset",
          "type": "address"
        }
      ],
      "name": "AssetAlreadyExists",
      "type": "error"
    },
    {
      "inputs": [
        {
          "internalType": "address",
          "name": "asset",
          "type": "address"
        }
      ],
      "name": "AssetNotFound",
      "type": "error"
    },
    {
      "inputs": [
        {
          "internalType": "address",
          "name": "asset",
          "type": "address"
        }
      ],
      "name": "BalanceCallFailed",
      "type": "error"
    },
    {
      "inputs": [
        {
          "internalType": "address",
          "name": "asset",
          "type": "address"
        },
        {
          "internalType": "bytes4",
          "name": "method",
          "type": "bytes4"
        }
      ],
      "name": "InvalidPriceMethod",
      "type": "error"
    },
    {
      "inputs": [
        {
          "internalType": "address",
          "name": "asset",
          "type": "address"
        }
      ],
      "name": "PriceCallFailed",
      "type": "error"
    },
    {
      "inputs": [
        {
          "internalType": "address",
          "name": "asset",
          "type": "address"
        }
      ],
      "name": "Unauthorized",
      "type": "error"
    },
    {
      "inputs": [],
      "name": "ZeroAddress",
      "type": "error"
    },
    {
      "inputs": [
        {
          "internalType": "address",
          "name": "asset",
          "type": "address"
        },
        {
          "internalType": "uint256",
          "name": "decimals",
          "type": "uint256"
        },
        {
          "internalType": "address",
          "name": "priceOracle",
          "type": "address"
        },
        {
          "internalType": "bytes",
          "name": "getPriceCall",
          "type": "bytes"
        }
      ],
      "name": "addAsset",
      "outputs": [],
      "stateMutability": "nonpayable",
      "type": "function"
    },
    {
      "inputs": [
        {
          "internalType": "address",
          "name": "asset",
          "type": "address"
        }
      ],
      "name": "assetValue",
      "outputs": [
        {
          "internalType": "uint256",
          "name": "value",
          "type": "uint256"
        }
      ],
      "stateMutability": "view",
      "type": "function"
    },
    {
      "inputs": [
        {
          "internalType": "uint256",
          "name": "",
          "type": "uint256"
        }
      ],
      "name": "assets",
      "outputs": [
        {
          "internalType": "address",
          "name": "",
          "type": "address"
        }
      ],
      "stateMutability": "view",
      "type": "function"
    },
    {
      "inputs": [
        {
          "internalType": "address",
          "name": "",
          "type": "address"
        }
      ],
      "name": "assetsInfo",
      "outputs": [
        {
          "internalType": "uint256",
          "name": "decimals",
          "type": "uint256"
        },
        {
          "internalType": "address",
          "name": "priceOracle",
          "type": "address"
        },
        {
          "internalType": "bytes",
          "name": "getPriceCall",
          "type": "bytes"
        }
      ],
      "stateMutability": "view",
      "type": "function"
    },
    {
      "inputs": [
        {
          "internalType": "address",
          "name": "asset",
          "type": "address"
        }
      ],
      "name": "getBalance",
      "outputs": [
        {
          "internalType": "uint256",
          "name": "balance",
          "type": "uint256"
        }
      ],
      "stateMutability": "view",
      "type": "function"
    },
    {
      "inputs": [
        {
          "internalType": "address",
          "name": "asset",
          "type": "address"
        }
      ],
      "name": "getPrice",
      "outputs": [
        {
          "internalType": "uint256",
          "name": "price",
          "type": "uint256"
        }
      ],
      "stateMutability": "view",
      "type": "function"
    },
    {
      "inputs": [],
      "name": "portfolioValue",
      "outputs": [
        {
          "internalType": "uint256",
          "name": "totalValue",
          "type": "uint256"
        }
      ],
      "stateMutability": "view",
      "type": "function"
    },
    {
      "inputs": [],
      "name": "treasury",
      "outputs": [
        {
          "internalType": "address",
          "name": "",
          "type": "address"
        }
      ],
      "stateMutability": "view",
      "type": "function"
    },
    {
      "inputs": [
        {
          "internalType": "address",
          "name": "",
          "type": "address"
        }
      ],
      "name": "updateAsset",
      "outputs": [],
      "stateMutability": "nonpayable",
      "type": "function"
    },
    {
      "inputs": [],
      "name": "vault",
      "outputs": [
        {
          "internalType": "address",
          "name": "",
          "type": "address"
        }
      ],
      "stateMutability": "view",
      "type": "function"
    }
  ],
  "bytecode": "0x60c06040523480156200001157600080fd5b5060405162001a6f38038062001a6f833981810160405281019062000037919062000181565b8073ffffffffffffffffffffffffffffffffffffffff1660808173ffffffffffffffffffffffffffffffffffffffff16815250508073ffffffffffffffffffffffffffffffffffffffff16633b19e84a6040518163ffffffff1660e01b8152600401602060405180830381865afa158015620000b7573d6000803e3d6000fd5b505050506040513d601f19601f82011682018060405250810190620000dd919062000181565b73ffffffffffffffffffffffffffffffffffffffff1660a08173ffffffffffffffffffffffffffffffffffffffff168152505050620001b3565b600080fd5b600073ffffffffffffffffffffffffffffffffffffffff82169050919050565b600062000149826200011c565b9050919050565b6200015b816200013c565b81146200016757600080fd5b50565b6000815190506200017b8162000150565b92915050565b6000602082840312156200019a576200019962000117565b5b6000620001aa848285016200016a565b91505092915050565b60805160a051611881620001ee60003960008181610585015281816106230152610c1c015260008181610b6a0152610d3f01526118816000f3fe608060405234801561001057600080fd5b506004361061009e5760003560e01c8063cf35bdd011610066578063cf35bdd01461015d578063d8af8ed41461018d578063f141b52b146101bd578063f8b2cb4f146101d9578063fbfa77cf146102095761009e565b806341976e09146100a357806359937048146100d357806361d027b31461010557806373acb59014610123578063a6e3a54914610141575b600080fd5b6100bd60048036038101906100b89190610dd3565b610227565b6040516100ca9190610e19565b60405180910390f35b6100ed60048036038101906100e89190610dd3565b6104b1565b6040516100fc93929190610ed3565b60405180910390f35b61010d610583565b60405161011a9190610f11565b60405180910390f35b61012b6105a7565b6040516101389190610e19565b60405180910390f35b61015b6004803603810190610156919061108d565b610621565b005b61017760048036038101906101729190611110565b610929565b6040516101849190610f11565b60405180910390f35b6101a760048036038101906101a29190610dd3565b610968565b6040516101b49190610e19565b60405180910390f35b6101d760048036038101906101d29190610dd3565b610b68565b005b6101f360048036038101906101ee9190610dd3565b610bf9565b6040516102009190610e19565b60405180910390f35b610211610d3d565b60405161021e9190610f11565b60405180910390f35b6000806000808473ffffffffffffffffffffffffffffffffffffffff1673ffffffffffffffffffffffffffffffffffffffff168152602001908152602001600020604051806060016040529081600082015481526020016001820160009054906101000a900473ffffffffffffffffffffffffffffffffffffffff1673ffffffffffffffffffffffffffffffffffffffff1673ffffffffffffffffffffffffffffffffffffffff1681526020016002820180546102e39061116c565b80601f016020809104026020016040519081016040528092919081815260200182805461030f9061116c565b801561035c5780601f106103315761010080835404028352916020019161035c565b820191906000526020600020905b81548152906001019060200180831161033f57829003601f168201915b5050505050815250509050600073ffffffffffffffffffffffffffffffffffffffff16816020015173ffffffffffffffffffffffffffffffffffffffff16036103dc57826040517f67c787f00000000000000000000000000000000000000000000000000000000081526004016103d39190610f11565b60405180910390fd5b600080826020015173ffffffffffffffffffffffffffffffffffffffff16836040015160405161040c91906111d9565b600060405180830381855afa9150503d8060008114610447576040519150601f19603f3d011682016040523d82523d6000602084013e61044c565b606091505b50915091508161049357846040517f7e3a7dd500000000000000000000000000000000000000000000000000000000815260040161048a9190610f11565b60405180910390fd5b808060200190518101906104a79190611205565b9350505050919050565b60006020528060005260406000206000915090508060000154908060010160009054906101000a900473ffffffffffffffffffffffffffffffffffffffff16908060020180546105009061116c565b80601f016020809104026020016040519081016040528092919081815260200182805461052c9061116c565b80156105795780601f1061054e57610100808354040283529160200191610579565b820191906000526020600020905b81548152906001019060200180831161055c57829003601f168201915b5050505050905083565b7f000000000000000000000000000000000000000000000000000000000000000081565b600080600090505b60018054905081101561061d57610603600182815481106105d3576105d2611232565b5b9060005260206000200160009054906101000a900473ffffffffffffffffffffffffffffffffffffffff16610968565b8261060e9190611290565b915080806001019150506105af565b5090565b7f000000000000000000000000000000000000000000000000000000000000000073ffffffffffffffffffffffffffffffffffffffff163373ffffffffffffffffffffffffffffffffffffffff16146106af576040517f08c379a00000000000000000000000000000000000000000000000000000000081526004016106a690611321565b60405180910390fd5b600073ffffffffffffffffffffffffffffffffffffffff168473ffffffffffffffffffffffffffffffffffffffff1603610715576040517fd92e233d00000000000000000000000000000000000000000000000000000000815260040160405180910390fd5b600073ffffffffffffffffffffffffffffffffffffffff166000808673ffffffffffffffffffffffffffffffffffffffff1673ffffffffffffffffffffffffffffffffffffffff16815260200190815260200160002060010160009054906101000a900473ffffffffffffffffffffffffffffffffffffffff1673ffffffffffffffffffffffffffffffffffffffff16146107e757836040517f95f1ba9a0000000000000000000000000000000000000000000000000000000081526004016107de9190610f11565b60405180910390fd5b6001849080600181540180825580915050600190039060005260206000200160009091909190916101000a81548173ffffffffffffffffffffffffffffffffffffffff021916908373ffffffffffffffffffffffffffffffffffffffff16021790555060405180606001604052808481526020018373ffffffffffffffffffffffffffffffffffffffff168152602001828152506000808673ffffffffffffffffffffffffffffffffffffffff1673ffffffffffffffffffffffffffffffffffffffff1681526020019081526020016000206000820151816000015560208201518160010160006101000a81548173ffffffffffffffffffffffffffffffffffffffff021916908373ffffffffffffffffffffffffffffffffffffffff160217905550604082015181600201908161091f91906114ed565b5090505050505050565b6001818154811061093957600080fd5b906000526020600020016000915054906101000a900473ffffffffffffffffffffffffffffffffffffffff1681565b6000806000808473ffffffffffffffffffffffffffffffffffffffff1673ffffffffffffffffffffffffffffffffffffffff168152602001908152602001600020604051806060016040529081600082015481526020016001820160009054906101000a900473ffffffffffffffffffffffffffffffffffffffff1673ffffffffffffffffffffffffffffffffffffffff1673ffffffffffffffffffffffffffffffffffffffff168152602001600282018054610a249061116c565b80601f0160208091040260200160405190810160405280929190818152602001828054610a509061116c565b8015610a9d5780601f10610a7257610100808354040283529160200191610a9d565b820191906000526020600020905b815481529060010190602001808311610a8057829003601f168201915b5050505050815250509050600073ffffffffffffffffffffffffffffffffffffffff16816020015173ffffffffffffffffffffffffffffffffffffffff1603610b1d57826040517f67c787f0000000000000000000000000000000000000000000000000000000008152600401610b149190610f11565b60405180910390fd5b6000610b2884610bf9565b90506000610b3585610227565b90508260000151600a610b4891906116f2565b8183610b54919061173d565b610b5e91906117ae565b9350505050919050565b7f000000000000000000000000000000000000000000000000000000000000000073ffffffffffffffffffffffffffffffffffffffff163373ffffffffffffffffffffffffffffffffffffffff1614610bf6576040517f08c379a0000000000000000000000000000000000000000000000000000000008152600401610bed9061182b565b60405180910390fd5b50565b60008060008373ffffffffffffffffffffffffffffffffffffffff166370a082317f0000000000000000000000000000000000000000000000000000000000000000604051602401610c4b9190610f11565b6040516020818303038152906040529060e01b6020820180517bffffffffffffffffffffffffffffffffffffffffffffffffffffffff8381831617835250505050604051610c9991906111d9565b600060405180830381855afa9150503d8060008114610cd4576040519150601f19603f3d011682016040523d82523d6000602084013e610cd9565b606091505b509150915081610d2057836040517ffae16637000000000000000000000000000000000000000000000000000000008152600401610d179190610f11565b60405180910390fd5b80806020019051810190610d349190611205565b92505050919050565b7f000000000000000000000000000000000000000000000000000000000000000081565b6000604051905090565b600080fd5b600080fd5b600073ffffffffffffffffffffffffffffffffffffffff82169050919050565b6000610da082610d75565b9050919050565b610db081610d95565b8114610dbb57600080fd5b50565b600081359050610dcd81610da7565b92915050565b600060208284031215610de957610de8610d6b565b5b6000610df784828501610dbe565b91505092915050565b6000819050919050565b610e1381610e00565b82525050565b6000602082019050610e2e6000830184610e0a565b92915050565b610e3d81610d95565b82525050565b600081519050919050565b600082825260208201905092915050565b60005b83811015610e7d578082015181840152602081019050610e62565b60008484015250505050565b6000601f19601f8301169050919050565b6000610ea582610e43565b610eaf8185610e4e565b9350610ebf818560208601610e5f565b610ec881610e89565b840191505092915050565b6000606082019050610ee86000830186610e0a565b610ef56020830185610e34565b8181036040830152610f078184610e9a565b9050949350505050565b6000602082019050610f266000830184610e34565b92915050565b610f3581610e00565b8114610f4057600080fd5b50565b600081359050610f5281610f2c565b92915050565b600080fd5b600080fd5b7f4e487b7100000000000000000000000000000000000000000000000000000000600052604160045260246000fd5b610f9a82610e89565b810181811067ffffffffffffffff82111715610fb957610fb8610f62565b5b80604052505050565b6000610fcc610d61565b9050610fd88282610f91565b919050565b600067ffffffffffffffff821115610ff857610ff7610f62565b5b61100182610e89565b9050602081019050919050565b82818337600083830152505050565b600061103061102b84610fdd565b610fc2565b90508281526020810184848401111561104c5761104b610f5d565b5b61105784828561100e565b509392505050565b600082601f83011261107457611073610f58565b5b813561108484826020860161101d565b91505092915050565b600080600080608085870312156110a7576110a6610d6b565b5b60006110b587828801610dbe565b94505060206110c687828801610f43565b93505060406110d787828801610dbe565b925050606085013567ffffffffffffffff8111156110f8576110f7610d70565b5b6111048782880161105f565b91505092959194509250565b60006020828403121561112657611125610d6b565b5b600061113484828501610f43565b91505092915050565b7f4e487b7100000000000000000000000000000000000000000000000000000000600052602260045260246000fd5b6000600282049050600182168061118457607f821691505b6020821081036111975761119661113d565b5b50919050565b600081905092915050565b60006111b382610e43565b6111bd818561119d565b93506111cd818560208601610e5f565b80840191505092915050565b60006111e582846111a8565b915081905092915050565b6000815190506111ff81610f2c565b92915050565b60006020828403121561121b5761121a610d6b565b5b6000611229848285016111f0565b91505092915050565b7f4e487b7100000000000000000000000000000000000000000000000000000000600052603260045260246000fd5b7f4e487b7100000000000000000000000000000000000000000000000000000000600052601160045260246000fd5b600061129b82610e00565b91506112a683610e00565b92508282019050808211156112be576112bd611261565b5b92915050565b600082825260208201905092915050565b7f4173796e6357697468647261773a204f6e6c7920547265617375727900000000600082015250565b600061130b601c836112c4565b9150611316826112d5565b602082019050919050565b6000602082019050818103600083015261133a816112fe565b9050919050565b60008190508160005260206000209050919050565b60006020601f8301049050919050565b600082821b905092915050565b6000600883026113a37fffffffffffffffffffffffffffffffffffffffffffffffffffffffffffffffff82611366565b6113ad8683611366565b95508019841693508086168417925050509392505050565b6000819050919050565b60006113ea6113e56113e084610e00565b6113c5565b610e00565b9050919050565b6000819050919050565b611404836113cf565b611418611410826113f1565b848454611373565b825550505050565b600090565b61142d611420565b6114388184846113fb565b505050565b5b8181101561145c57611451600082611425565b60018101905061143e565b5050565b601f8211156114a15761147281611341565b61147b84611356565b8101602085101561148a578190505b61149e61149685611356565b83018261143d565b50505b505050565b600082821c905092915050565b60006114c4600019846008026114a6565b1980831691505092915050565b60006114dd83836114b3565b9150826002028217905092915050565b6114f682610e43565b67ffffffffffffffff81111561150f5761150e610f62565b5b611519825461116c565b611524828285611460565b600060209050601f8311600181146115575760008415611545578287015190505b61154f85826114d1565b8655506115b7565b601f19841661156586611341565b60005b8281101561158d57848901518255600182019150602085019450602081019050611568565b868310156115aa57848901516115a6601f8916826114b3565b8355505b6001600288020188555050505b505050505050565b60008160011c9050919050565b6000808291508390505b6001851115611616578086048111156115f2576115f1611261565b5b60018516156116015780820291505b808102905061160f856115bf565b94506115d6565b94509492505050565b60008261162f57600190506116eb565b8161163d57600090506116eb565b8160018114611653576002811461165d5761168c565b60019150506116eb565b60ff84111561166f5761166e611261565b5b8360020a91508482111561168657611685611261565b5b506116eb565b5060208310610133831016604e8410600b84101617156116c15782820a9050838111156116bc576116bb611261565b5b6116eb565b6116ce84848460016115cc565b925090508184048111156116e5576116e4611261565b5b81810290505b9392505050565b60006116fd82610e00565b915061170883610e00565b92506117357fffffffffffffffffffffffffffffffffffffffffffffffffffffffffffffffff848461161f565b905092915050565b600061174882610e00565b915061175383610e00565b925082820261176181610e00565b9150828204841483151761177857611777611261565b5b5092915050565b7f4e487b7100000000000000000000000000000000000000000000000000000000600052601260045260246000fd5b60006117b982610e00565b91506117c483610e00565b9250826117d4576117d361177f565b5b828204905092915050565b7f4173796e6357697468647261773a204f6e6c79205661756c7400000000000000600082015250565b60006118156019836112c4565b9150611820826117df565b602082019050919050565b6000602082019050818103600083015261184481611808565b905091905056fea2646970667358221220b7831b9f9fae5c7619be4083a4bd2c4b79501d8ee4cbaf377883477f53c6020864736f6c63430008160033",
  "linkReferences": {},
  "deployedLinkReferences": {}
}