{
  "_format": "hh-sol-artifact-1",
  "contractName": "Treasury",
  "sourceName": "contracts/Treasury.sol",
  "abi": [
    {
      "inputs": [
        {
          "internalType": "bytes32",
          "name": "callId",
          "type": "bytes32"
        }
      ],
      "name": "CallAlreadyApproved",
      "type": "error"
    },
    {
      "inputs": [
        {
          "internalType": "bytes32",
          "name": "callId",
          "type": "bytes32"
        }
      ],
      "name": "CallNotApproved",
      "type": "error"
    },
    {
      "inputs": [
        {
          "internalType": "bytes32",
          "name": "callId",
          "type": "bytes32"
        },
        {
          "internalType": "bytes4",
          "name": "selector",
          "type": "bytes4"
        },
        {
          "internalType": "bytes",
          "name": "callData",
          "type": "bytes"
        }
      ],
      "name": "ConditionNotMet",
      "type": "error"
    },
    {
      "inputs": [
        {
          "internalType": "bytes32",
          "name": "callId",
          "type": "bytes32"
        },
        {
          "internalType": "bytes4",
          "name": "selector",
          "type": "bytes4"
        },
        {
          "internalType": "bytes4",
          "name": "expectedSelector",
          "type": "bytes4"
        }
      ],
      "name": "SelectorDoesNotMatch",
      "type": "error"
    },
    {
      "inputs": [
        {
          "internalType": "bytes32",
          "name": "callId",
          "type": "bytes32"
        },
        {
          "internalType": "address",
          "name": "target",
          "type": "address"
        },
        {
          "internalType": "address",
          "name": "expectedTarget",
          "type": "address"
        }
      ],
      "name": "TargetDoesNotMatch",
      "type": "error"
    },
    {
      "inputs": [
        {
          "internalType": "address",
          "name": "sender",
          "type": "address"
        },
        {
          "internalType": "address",
          "name": "expectedSender",
          "type": "address"
        }
      ],
      "name": "Unauthorized",
      "type": "error"
    },
    {
      "anonymous": false,
      "inputs": [
        {
          "indexed": true,
          "internalType": "bytes32",
          "name": "callId",
          "type": "bytes32"
        },
        {
          "indexed": true,
          "internalType": "address",
          "name": "target",
          "type": "address"
        },
        {
          "indexed": true,
          "internalType": "bytes4",
          "name": "selector",
          "type": "bytes4"
        },
        {
          "indexed": false,
          "internalType": "bytes",
          "name": "conditions",
          "type": "bytes"
        },
        {
          "indexed": false,
          "internalType": "bytes",
          "name": "mask",
          "type": "bytes"
        }
      ],
      "name": "CallApproved",
      "type": "event"
    },
    {
      "anonymous": false,
      "inputs": [
        {
          "indexed": true,
          "internalType": "bytes32",
          "name": "callId",
          "type": "bytes32"
        },
        {
          "indexed": true,
          "internalType": "address",
          "name": "target",
          "type": "address"
        },
        {
          "indexed": true,
          "internalType": "bytes4",
          "name": "selector",
          "type": "bytes4"
        },
        {
          "indexed": false,
          "internalType": "bytes",
          "name": "data",
          "type": "bytes"
        }
      ],
      "name": "CallExecuted",
      "type": "event"
    },
    {
      "inputs": [
        {
          "internalType": "address",
          "name": "_target",
          "type": "address"
        },
        {
          "internalType": "bytes4",
          "name": "_selector",
          "type": "bytes4"
        },
        {
          "internalType": "bytes",
          "name": "_conditions",
          "type": "bytes"
        },
        {
          "internalType": "bytes",
          "name": "_mask",
          "type": "bytes"
        }
      ],
      "name": "addApprovedCall",
      "outputs": [],
      "stateMutability": "nonpayable",
      "type": "function"
    },
    {
      "inputs": [
        {
          "internalType": "bytes32",
          "name": "",
          "type": "bytes32"
        }
      ],
      "name": "approvedCalls",
      "outputs": [
        {
          "internalType": "bool",
          "name": "",
          "type": "bool"
        }
      ],
      "stateMutability": "view",
      "type": "function"
    },
    {
      "inputs": [],
      "name": "asset",
      "outputs": [
        {
          "internalType": "address",
          "name": "",
          "type": "address"
        }
      ],
      "stateMutability": "view",
      "type": "function"
    },
    {
      "inputs": [
        {
          "internalType": "address",
          "name": "_target",
          "type": "address"
        },
        {
          "internalType": "bytes4",
          "name": "_selector",
          "type": "bytes4"
        },
        {
          "internalType": "bytes",
          "name": "_data",
          "type": "bytes"
        },
        {
          "internalType": "bytes32",
          "name": "callId",
          "type": "bytes32"
        }
      ],
      "name": "call",
      "outputs": [],
      "stateMutability": "nonpayable",
      "type": "function"
    },
    {
      "inputs": [
        {
          "internalType": "bytes32",
          "name": "",
          "type": "bytes32"
        }
      ],
      "name": "calls",
      "outputs": [
        {
          "internalType": "address",
          "name": "target",
          "type": "address"
        },
        {
          "internalType": "bytes4",
          "name": "selector",
          "type": "bytes4"
        },
        {
          "internalType": "bytes",
          "name": "conditions",
          "type": "bytes"
        },
        {
          "internalType": "bytes",
          "name": "mask",
          "type": "bytes"
        }
      ],
      "stateMutability": "view",
      "type": "function"
    },
    {
      "inputs": [],
      "name": "curator",
      "outputs": [
        {
          "internalType": "address",
          "name": "",
          "type": "address"
        }
      ],
      "stateMutability": "view",
      "type": "function"
    },
    {
      "inputs": [
        {
          "internalType": "address",
          "name": "_target",
          "type": "address"
        },
        {
          "internalType": "bytes4",
          "name": "_selector",
          "type": "bytes4"
        },
        {
          "internalType": "bytes",
          "name": "_conditions",
          "type": "bytes"
        },
        {
          "internalType": "bytes",
          "name": "_mask",
          "type": "bytes"
        }
      ],
      "name": "getCallId",
      "outputs": [
        {
          "internalType": "bytes32",
          "name": "",
          "type": "bytes32"
        }
      ],
      "stateMutability": "pure",
      "type": "function"
    },
    {
      "inputs": [
        {
          "internalType": "address",
          "name": "_asset",
          "type": "address"
        }
      ],
      "name": "initialize",
      "outputs": [],
      "stateMutability": "nonpayable",
      "type": "function"
    },
    {
      "inputs": [
        {
          "internalType": "address",
          "name": "operator",
          "type": "address"
        },
        {
          "internalType": "address",
          "name": "from",
          "type": "address"
        },
        {
          "internalType": "uint256",
          "name": "id",
          "type": "uint256"
        },
        {
          "internalType": "uint256",
          "name": "value",
          "type": "uint256"
        },
        {
          "internalType": "bytes",
          "name": "data",
          "type": "bytes"
        }
      ],
      "name": "onERC1155Received",
      "outputs": [
        {
          "internalType": "bytes4",
          "name": "",
          "type": "bytes4"
        }
      ],
      "stateMutability": "nonpayable",
      "type": "function"
    },
    {
      "inputs": [],
      "name": "owner",
      "outputs": [
        {
          "internalType": "address",
          "name": "",
          "type": "address"
        }
      ],
      "stateMutability": "view",
      "type": "function"
    },
    {
      "inputs": [
        {
          "internalType": "address",
          "name": "_vault",
          "type": "address"
        }
      ],
      "name": "setVault",
      "outputs": [],
      "stateMutability": "nonpayable",
      "type": "function"
    },
    {
      "inputs": [
        {
          "internalType": "uint256",
          "name": "assets",
          "type": "uint256"
        }
      ],
      "name": "useDeposit",
      "outputs": [],
      "stateMutability": "nonpayable",
      "type": "function"
    },
    {
      "inputs": [],
      "name": "vault",
      "outputs": [
        {
          "internalType": "address",
          "name": "",
          "type": "address"
        }
      ],
      "stateMutability": "view",
      "type": "function"
    },
    {
      "inputs": [
        {
          "internalType": "uint256",
          "name": "assets",
          "type": "uint256"
        }
      ],
      "name": "withdraw0",
      "outputs": [],
      "stateMutability": "nonpayable",
      "type": "function"
    }
  ],
  "bytecode": "0x608060405234801561001057600080fd5b50612af3806100206000396000f3fe608060405234801561001057600080fd5b50600436106100ea5760003560e01c8063ca60cf451161008c578063e66f53b711610066578063e66f53b71461024a578063f23a6e6114610268578063f72e903f14610298578063fbfa77cf146102b4576100ea565b8063ca60cf45146101b7578063ce710d6e146101e7578063cff1026514610217576100ea565b80638da5cb5b116100c85780638da5cb5b1461014557806393dc8c7e14610163578063b583d52b1461017f578063c4d66de81461019b576100ea565b80632488e203146100ef57806338d52e0f1461010b5780636817031b14610129575b600080fd5b61010960048036038101906101049190611c08565b6102d2565b005b6101136105a2565b6040516101209190611cb6565b60405180910390f35b610143600480360381019061013e9190611cd1565b6105c8565b005b61014d610811565b60405161015a9190611cb6565b60405180910390f35b61017d60048036038101906101789190611d34565b610837565b005b61019960048036038101906101949190611d34565b610bfa565b005b6101b560048036038101906101b09190611cd1565b610f98565b005b6101d160048036038101906101cc9190611d97565b6110ef565b6040516101de9190611ddf565b60405180910390f35b61020160048036038101906101fc9190611c08565b61110f565b60405161020e9190611e09565b60405180910390f35b610231600480360381019061022c9190611d97565b611148565b6040516102419493929190611eb2565b60405180910390f35b6102526112b5565b60405161025f9190611cb6565b60405180910390f35b610282600480360381019061027d9190611f65565b6112db565b60405161028f9190611fff565b60405180910390f35b6102b260048036038101906102ad919061201a565b61130a565b005b6102bc6119d4565b6040516102c99190611cb6565b60405180910390f35b600160009054906101000a900473ffffffffffffffffffffffffffffffffffffffff1673ffffffffffffffffffffffffffffffffffffffff163373ffffffffffffffffffffffffffffffffffffffff16146103885733600160009054906101000a900473ffffffffffffffffffffffffffffffffffffffff166040517f295a81c100000000000000000000000000000000000000000000000000000000815260040161037f92919061209d565b60405180910390fd5b60006103968585858561110f565b90506004600082815260200190815260200160002060009054906101000a900460ff16156103fb57806040517f51d6cb750000000000000000000000000000000000000000000000000000000081526004016103f29190611e09565b60405180910390fd5b60016004600083815260200190815260200160002060006101000a81548160ff02191690831515021790555060405180608001604052808673ffffffffffffffffffffffffffffffffffffffff168152602001857bffffffffffffffffffffffffffffffffffffffffffffffffffffffff19168152602001848152602001838152506005600083815260200190815260200160002060008201518160000160006101000a81548173ffffffffffffffffffffffffffffffffffffffff021916908373ffffffffffffffffffffffffffffffffffffffff16021790555060208201518160000160146101000a81548163ffffffff021916908360e01c0217905550604082015181600101908161051091906122d2565b50606082015181600201908161052691906122d2565b50905050837bffffffffffffffffffffffffffffffffffffffffffffffffffffffff19168573ffffffffffffffffffffffffffffffffffffffff16827f1bb78cd0b2c3a1fb051d9bb8235bbce618527314d3e3327711d222bfee9814af86866040516105939291906123a4565b60405180910390a45050505050565b600360009054906101000a900473ffffffffffffffffffffffffffffffffffffffff1681565b600160009054906101000a900473ffffffffffffffffffffffffffffffffffffffff1673ffffffffffffffffffffffffffffffffffffffff163373ffffffffffffffffffffffffffffffffffffffff161461067e5733600160009054906101000a900473ffffffffffffffffffffffffffffffffffffffff166040517f295a81c100000000000000000000000000000000000000000000000000000000815260040161067592919061209d565b60405180910390fd5b600073ffffffffffffffffffffffffffffffffffffffff1660008054906101000a900473ffffffffffffffffffffffffffffffffffffffff1673ffffffffffffffffffffffffffffffffffffffff161461070d576040517f08c379a000000000000000000000000000000000000000000000000000000000815260040161070490612438565b60405180910390fd5b806000806101000a81548173ffffffffffffffffffffffffffffffffffffffff021916908373ffffffffffffffffffffffffffffffffffffffff160217905550600360009054906101000a900473ffffffffffffffffffffffffffffffffffffffff1673ffffffffffffffffffffffffffffffffffffffff1663095ea7b3827fffffffffffffffffffffffffffffffffffffffffffffffffffffffffffffffff6040518363ffffffff1660e01b81526004016107ca929190612467565b6020604051808303816000875af11580156107e9573d6000803e3d6000fd5b505050506040513d601f19601f8201168201806040525081019061080d91906124bc565b5050565b600160009054906101000a900473ffffffffffffffffffffffffffffffffffffffff1681565b60008054906101000a900473ffffffffffffffffffffffffffffffffffffffff1673ffffffffffffffffffffffffffffffffffffffff163373ffffffffffffffffffffffffffffffffffffffff16146108e9573360008054906101000a900473ffffffffffffffffffffffffffffffffffffffff166040517f295a81c10000000000000000000000000000000000000000000000000000000081526004016108e092919061209d565b60405180910390fd5b6000811161092c576040517f08c379a000000000000000000000000000000000000000000000000000000000815260040161092390612535565b60405180910390fd5b6000606460508361093d9190612584565b61094791906125f5565b90506000733e59a31363e2ad014dcbc521c4a0d5757d9f340290506000600360009054906101000a900473ffffffffffffffffffffffffffffffffffffffff1673ffffffffffffffffffffffffffffffffffffffff1663095ea7b360e01b83856040516024016109b8929190612467565b604051602081830303815290604052907bffffffffffffffffffffffffffffffffffffffffffffffffffffffff19166020820180517bffffffffffffffffffffffffffffffffffffffffffffffffffffffff8381831617835250505050604051610a229190612662565b6000604051808303816000865af19150503d8060008114610a5f576040519150601f19603f3d011682016040523d82523d6000602084013e610a64565b606091505b5050905080610aa8576040517f08c379a0000000000000000000000000000000000000000000000000000000008152600401610a9f906126c5565b60405180910390fd5b60008273ffffffffffffffffffffffffffffffffffffffff1663e8eda9df60e01b600360009054906101000a900473ffffffffffffffffffffffffffffffffffffffff1686306000604051602401610b03949392919061272d565b604051602081830303815290604052907bffffffffffffffffffffffffffffffffffffffffffffffffffffffff19166020820180517bffffffffffffffffffffffffffffffffffffffffffffffffffffffff8381831617835250505050604051610b6d9190612662565b6000604051808303816000865af19150503d8060008114610baa576040519150601f19603f3d011682016040523d82523d6000602084013e610baf565b606091505b5050905080610bf3576040517f08c379a0000000000000000000000000000000000000000000000000000000008152600401610bea906127be565b60405180910390fd5b5050505050565b600160009054906101000a900473ffffffffffffffffffffffffffffffffffffffff1673ffffffffffffffffffffffffffffffffffffffff163373ffffffffffffffffffffffffffffffffffffffff1614610cb05733600160009054906101000a900473ffffffffffffffffffffffffffffffffffffffff166040517f295a81c1000000000000000000000000000000000000000000000000000000008152600401610ca792919061209d565b60405180910390fd5b60008111610cf3576040517f08c379a0000000000000000000000000000000000000000000000000000000008152600401610cea90612535565b60405180910390fd5b6000733e59a31363e2ad014dcbc521c4a0d5757d9f34029050600073ff8309b9e99bfd2d4021bc71a362abd93dbd4785905060008173ffffffffffffffffffffffffffffffffffffffff1663095ea7b360e01b8486604051602401610d59929190612467565b604051602081830303815290604052907bffffffffffffffffffffffffffffffffffffffffffffffffffffffff19166020820180517bffffffffffffffffffffffffffffffffffffffffffffffffffffffff8381831617835250505050604051610dc39190612662565b6000604051808303816000865af19150503d8060008114610e00576040519150601f19603f3d011682016040523d82523d6000602084013e610e05565b606091505b5050905080610e49576040517f08c379a0000000000000000000000000000000000000000000000000000000008152600401610e40906126c5565b60405180910390fd5b60008373ffffffffffffffffffffffffffffffffffffffff166369328dec60e01b600360009054906101000a900473ffffffffffffffffffffffffffffffffffffffff168730604051602401610ea1939291906127de565b604051602081830303815290604052907bffffffffffffffffffffffffffffffffffffffffffffffffffffffff19166020820180517bffffffffffffffffffffffffffffffffffffffffffffffffffffffff8381831617835250505050604051610f0b9190612662565b6000604051808303816000865af19150503d8060008114610f48576040519150601f19603f3d011682016040523d82523d6000602084013e610f4d565b606091505b5050905080610f91576040517f08c379a0000000000000000000000000000000000000000000000000000000008152600401610f8890612861565b60405180910390fd5b5050505050565b600073ffffffffffffffffffffffffffffffffffffffff16600160009054906101000a900473ffffffffffffffffffffffffffffffffffffffff1673ffffffffffffffffffffffffffffffffffffffff1614611029576040517f08c379a0000000000000000000000000000000000000000000000000000000008152600401611020906128cd565b60405180910390fd5b33600160006101000a81548173ffffffffffffffffffffffffffffffffffffffff021916908373ffffffffffffffffffffffffffffffffffffffff16021790555033600260006101000a81548173ffffffffffffffffffffffffffffffffffffffff021916908373ffffffffffffffffffffffffffffffffffffffff16021790555080600360006101000a81548173ffffffffffffffffffffffffffffffffffffffff021916908373ffffffffffffffffffffffffffffffffffffffff16021790555050565b60046020528060005260406000206000915054906101000a900460ff1681565b6000848484846040516020016111289493929190611eb2565b604051602081830303815290604052805190602001209050949350505050565b60056020528060005260406000206000915090508060000160009054906101000a900473ffffffffffffffffffffffffffffffffffffffff16908060000160149054906101000a900460e01b908060010180546111a4906120f5565b80601f01602080910402602001604051908101604052809291908181526020018280546111d0906120f5565b801561121d5780601f106111f25761010080835404028352916020019161121d565b820191906000526020600020905b81548152906001019060200180831161120057829003601f168201915b505050505090806002018054611232906120f5565b80601f016020809104026020016040519081016040528092919081815260200182805461125e906120f5565b80156112ab5780601f10611280576101008083540402835291602001916112ab565b820191906000526020600020905b81548152906001019060200180831161128e57829003601f168201915b5050505050905084565b600260009054906101000a900473ffffffffffffffffffffffffffffffffffffffff1681565b60007ff23a6e612e1ff4830e658fe43f4e3cb4a5f8170bd5d9e69fb5d7a7fa9e4fdf9790509695505050505050565b600260009054906101000a900473ffffffffffffffffffffffffffffffffffffffff1673ffffffffffffffffffffffffffffffffffffffff163373ffffffffffffffffffffffffffffffffffffffff16141580156113b65750600160009054906101000a900473ffffffffffffffffffffffffffffffffffffffff1673ffffffffffffffffffffffffffffffffffffffff163373ffffffffffffffffffffffffffffffffffffffff1614155b1561141c5733600260009054906101000a900473ffffffffffffffffffffffffffffffffffffffff166040517f295a81c100000000000000000000000000000000000000000000000000000000815260040161141392919061209d565b60405180910390fd5b6004600082815260200190815260200160002060009054906101000a900460ff1661147e57806040517fcb2fc9270000000000000000000000000000000000000000000000000000000081526004016114759190611e09565b60405180910390fd5b6000600560008381526020019081526020016000206040518060800160405290816000820160009054906101000a900473ffffffffffffffffffffffffffffffffffffffff1673ffffffffffffffffffffffffffffffffffffffff1673ffffffffffffffffffffffffffffffffffffffff1681526020016000820160149054906101000a900460e01b7bffffffffffffffffffffffffffffffffffffffffffffffffffffffff19167bffffffffffffffffffffffffffffffffffffffffffffffffffffffff19168152602001600182018054611559906120f5565b80601f0160208091040260200160405190810160405280929190818152602001828054611585906120f5565b80156115d25780601f106115a7576101008083540402835291602001916115d2565b820191906000526020600020905b8154815290600101906020018083116115b557829003601f168201915b505050505081526020016002820180546115eb906120f5565b80601f0160208091040260200160405190810160405280929190818152602001828054611617906120f5565b80156116645780601f1061163957610100808354040283529160200191611664565b820191906000526020600020905b81548152906001019060200180831161164757829003601f168201915b5050505050815250509050806000015173ffffffffffffffffffffffffffffffffffffffff168573ffffffffffffffffffffffffffffffffffffffff16146116eb57818582600001516040517f51ee91a20000000000000000000000000000000000000000000000000000000081526004016116e2939291906128ed565b60405180910390fd5b80602001517bffffffffffffffffffffffffffffffffffffffffffffffffffffffff1916847bffffffffffffffffffffffffffffffffffffffffffffffffffffffff19161461177957818482602001516040517fdccdb7f300000000000000000000000000000000000000000000000000000000815260040161177093929190612924565b60405180910390fd5b73__$f5f62d6bd029d2a69a0c77f3706b7d82d9$__63202ede0c84836040015184606001516040518463ffffffff1660e01b81526004016117bc939291906129a5565b602060405180830381865af41580156117d9573d6000803e3d6000fd5b505050506040513d601f19601f820116820180604052508101906117fd91906124bc565b611842578184846040517fd27b29b2000000000000000000000000000000000000000000000000000000008152600401611839939291906129f1565b60405180910390fd5b60008573ffffffffffffffffffffffffffffffffffffffff16858560405160240161186d9190612a2f565b604051602081830303815290604052907bffffffffffffffffffffffffffffffffffffffffffffffffffffffff19166020820180517bffffffffffffffffffffffffffffffffffffffffffffffffffffffff83818316178352505050506040516118d79190612662565b6000604051808303816000865af19150503d8060008114611914576040519150601f19603f3d011682016040523d82523d6000602084013e611919565b606091505b505090508061195d576040517f08c379a000000000000000000000000000000000000000000000000000000000815260040161195490612a9d565b60405180910390fd5b847bffffffffffffffffffffffffffffffffffffffffffffffffffffffff19168673ffffffffffffffffffffffffffffffffffffffff16847f73c10c274679cd53b5bfc4e41a028729e9c218289200b252cd4b692e3b73e0a8876040516119c49190612a2f565b60405180910390a4505050505050565b60008054906101000a900473ffffffffffffffffffffffffffffffffffffffff1681565b6000604051905090565b600080fd5b600080fd5b600073ffffffffffffffffffffffffffffffffffffffff82169050919050565b6000611a3782611a0c565b9050919050565b611a4781611a2c565b8114611a5257600080fd5b50565b600081359050611a6481611a3e565b92915050565b60007fffffffff0000000000000000000000000000000000000000000000000000000082169050919050565b611a9f81611a6a565b8114611aaa57600080fd5b50565b600081359050611abc81611a96565b92915050565b600080fd5b600080fd5b6000601f19601f8301169050919050565b7f4e487b7100000000000000000000000000000000000000000000000000000000600052604160045260246000fd5b611b1582611acc565b810181811067ffffffffffffffff82111715611b3457611b33611add565b5b80604052505050565b6000611b476119f8565b9050611b538282611b0c565b919050565b600067ffffffffffffffff821115611b7357611b72611add565b5b611b7c82611acc565b9050602081019050919050565b82818337600083830152505050565b6000611bab611ba684611b58565b611b3d565b905082815260208101848484011115611bc757611bc6611ac7565b5b611bd2848285611b89565b509392505050565b600082601f830112611bef57611bee611ac2565b5b8135611bff848260208601611b98565b91505092915050565b60008060008060808587031215611c2257611c21611a02565b5b6000611c3087828801611a55565b9450506020611c4187828801611aad565b935050604085013567ffffffffffffffff811115611c6257611c61611a07565b5b611c6e87828801611bda565b925050606085013567ffffffffffffffff811115611c8f57611c8e611a07565b5b611c9b87828801611bda565b91505092959194509250565b611cb081611a2c565b82525050565b6000602082019050611ccb6000830184611ca7565b92915050565b600060208284031215611ce757611ce6611a02565b5b6000611cf584828501611a55565b91505092915050565b6000819050919050565b611d1181611cfe565b8114611d1c57600080fd5b50565b600081359050611d2e81611d08565b92915050565b600060208284031215611d4a57611d49611a02565b5b6000611d5884828501611d1f565b91505092915050565b6000819050919050565b611d7481611d61565b8114611d7f57600080fd5b50565b600081359050611d9181611d6b565b92915050565b600060208284031215611dad57611dac611a02565b5b6000611dbb84828501611d82565b91505092915050565b60008115159050919050565b611dd981611dc4565b82525050565b6000602082019050611df46000830184611dd0565b92915050565b611e0381611d61565b82525050565b6000602082019050611e1e6000830184611dfa565b92915050565b611e2d81611a6a565b82525050565b600081519050919050565b600082825260208201905092915050565b60005b83811015611e6d578082015181840152602081019050611e52565b60008484015250505050565b6000611e8482611e33565b611e8e8185611e3e565b9350611e9e818560208601611e4f565b611ea781611acc565b840191505092915050565b6000608082019050611ec76000830187611ca7565b611ed46020830186611e24565b8181036040830152611ee68185611e79565b90508181036060830152611efa8184611e79565b905095945050505050565b600080fd5b600080fd5b60008083601f840112611f2557611f24611ac2565b5b8235905067ffffffffffffffff811115611f4257611f41611f05565b5b602083019150836001820283011115611f5e57611f5d611f0a565b5b9250929050565b60008060008060008060a08789031215611f8257611f81611a02565b5b6000611f9089828a01611a55565b9650506020611fa189828a01611a55565b9550506040611fb289828a01611d1f565b9450506060611fc389828a01611d1f565b935050608087013567ffffffffffffffff811115611fe457611fe3611a07565b5b611ff089828a01611f0f565b92509250509295509295509295565b60006020820190506120146000830184611e24565b92915050565b6000806000806080858703121561203457612033611a02565b5b600061204287828801611a55565b945050602061205387828801611aad565b935050604085013567ffffffffffffffff81111561207457612073611a07565b5b61208087828801611bda565b925050606061209187828801611d82565b91505092959194509250565b60006040820190506120b26000830185611ca7565b6120bf6020830184611ca7565b9392505050565b7f4e487b7100000000000000000000000000000000000000000000000000000000600052602260045260246000fd5b6000600282049050600182168061210d57607f821691505b6020821081036121205761211f6120c6565b5b50919050565b60008190508160005260206000209050919050565b60006020601f8301049050919050565b600082821b905092915050565b6000600883026121887fffffffffffffffffffffffffffffffffffffffffffffffffffffffffffffffff8261214b565b612192868361214b565b95508019841693508086168417925050509392505050565b6000819050919050565b60006121cf6121ca6121c584611cfe565b6121aa565b611cfe565b9050919050565b6000819050919050565b6121e9836121b4565b6121fd6121f5826121d6565b848454612158565b825550505050565b600090565b612212612205565b61221d8184846121e0565b505050565b5b818110156122415761223660008261220a565b600181019050612223565b5050565b601f8211156122865761225781612126565b6122608461213b565b8101602085101561226f578190505b61228361227b8561213b565b830182612222565b50505b505050565b600082821c905092915050565b60006122a96000198460080261228b565b1980831691505092915050565b60006122c28383612298565b9150826002028217905092915050565b6122db82611e33565b67ffffffffffffffff8111156122f4576122f3611add565b5b6122fe82546120f5565b612309828285612245565b600060209050601f83116001811461233c576000841561232a578287015190505b61233485826122b6565b86555061239c565b601f19841661234a86612126565b60005b828110156123725784890151825560018201915060208501945060208101905061234d565b8683101561238f578489015161238b601f891682612298565b8355505b6001600288020188555050505b505050505050565b600060408201905081810360008301526123be8185611e79565b905081810360208301526123d28184611e79565b90509392505050565b600082825260208201905092915050565b7f5661756c7420616c726561647920736574000000000000000000000000000000600082015250565b60006124226011836123db565b915061242d826123ec565b602082019050919050565b6000602082019050818103600083015261245181612415565b9050919050565b61246181611cfe565b82525050565b600060408201905061247c6000830185611ca7565b6124896020830184612458565b9392505050565b61249981611dc4565b81146124a457600080fd5b50565b6000815190506124b681612490565b92915050565b6000602082840312156124d2576124d1611a02565b5b60006124e0848285016124a7565b91505092915050565b7f417373657473206d7573742062652067726561746572207468616e2030000000600082015250565b600061251f601d836123db565b915061252a826124e9565b602082019050919050565b6000602082019050818103600083015261254e81612512565b9050919050565b7f4e487b7100000000000000000000000000000000000000000000000000000000600052601160045260246000fd5b600061258f82611cfe565b915061259a83611cfe565b92508282026125a881611cfe565b915082820484148315176125bf576125be612555565b5b5092915050565b7f4e487b7100000000000000000000000000000000000000000000000000000000600052601260045260246000fd5b600061260082611cfe565b915061260b83611cfe565b92508261261b5761261a6125c6565b5b828204905092915050565b600081905092915050565b600061263c82611e33565b6126468185612626565b9350612656818560208601611e4f565b80840191505092915050565b600061266e8284612631565b915081905092915050565b7f417070726f76652063616c6c206661696c656400000000000000000000000000600082015250565b60006126af6013836123db565b91506126ba82612679565b602082019050919050565b600060208201905081810360008301526126de816126a2565b9050919050565b6000819050919050565b600060ff82169050919050565b600061271761271261270d846126e5565b6121aa565b6126ef565b9050919050565b612727816126fc565b82525050565b60006080820190506127426000830187611ca7565b61274f6020830186612458565b61275c6040830185611ca7565b612769606083018461271e565b95945050505050565b7f4465706f7369742063616c6c206661696c656400000000000000000000000000600082015250565b60006127a86013836123db565b91506127b382612772565b602082019050919050565b600060208201905081810360008301526127d78161279b565b9050919050565b60006060820190506127f36000830186611ca7565b6128006020830185612458565b61280d6040830184611ca7565b949350505050565b7f57697468647261772063616c6c206661696c6564000000000000000000000000600082015250565b600061284b6014836123db565b915061285682612815565b602082019050919050565b6000602082019050818103600083015261287a8161283e565b9050919050565b7f416c726561647920696e697469616c697a656400000000000000000000000000600082015250565b60006128b76013836123db565b91506128c282612881565b602082019050919050565b600060208201905081810360008301526128e6816128aa565b9050919050565b60006060820190506129026000830186611dfa565b61290f6020830185611ca7565b61291c6040830184611ca7565b949350505050565b60006060820190506129396000830186611dfa565b6129466020830185611e24565b6129536040830184611e24565b949350505050565b600082825260208201905092915050565b600061297782611e33565b612981818561295b565b9350612991818560208601611e4f565b61299a81611acc565b840191505092915050565b600060608201905081810360008301526129bf818661296c565b905081810360208301526129d3818561296c565b905081810360408301526129e7818461296c565b9050949350505050565b6000606082019050612a066000830186611dfa565b612a136020830185611e24565b8181036040830152612a258184611e79565b9050949350505050565b60006020820190508181036000830152612a498184611e79565b905092915050565b7f43616c6c206661696c6564000000000000000000000000000000000000000000600082015250565b6000612a87600b836123db565b9150612a9282612a51565b602082019050919050565b60006020820190508181036000830152612ab681612a7a565b905091905056fea26469706673582212200a3afd71fc276d44948f4f93c14ca800b67f200c3a2c426d32c6daf6076542de64736f6c63430008160033",
  "linkReferences": {
    "contracts/libraries/BytesLib.sol": {
      "BytesLib": [
        {
          "length": 20,
          "start": 6043
        }
      ]
    }
  },
  "deployedLinkReferences": {
    "contracts/libraries/BytesLib.sol": {
      "BytesLib": [
        {
          "length": 20,
          "start": 6011
        }
      ]
    }
  }
}