{
  "_format": "hh-sol-artifact-1",
  "contractName": "Vault",
  "sourceName": "contracts/Vault.sol",
  "abi": [
    {
      "inputs": [
        {
          "internalType": "address",
          "name": "_asset",
          "type": "address"
        },
        {
          "internalType": "string",
          "name": "_name",
          "type": "string"
        },
        {
          "internalType": "string",
          "name": "_symbol",
          "type": "string"
        },
        {
          "internalType": "address",
          "name": "_safeWalet",
          "type": "address"
        }
      ],
      "stateMutability": "nonpayable",
      "type": "constructor"
    },
    {
      "inputs": [],
      "name": "AlreadySet",
      "type": "error"
    },
    {
      "inputs": [],
      "name": "DepositLocked",
      "type": "error"
    },
    {
      "inputs": [
        {
          "internalType": "address",
          "name": "spender",
          "type": "address"
        },
        {
          "internalType": "uint256",
          "name": "allowance",
          "type": "uint256"
        },
        {
          "internalType": "uint256",
          "name": "needed",
          "type": "uint256"
        }
      ],
      "name": "ERC20InsufficientAllowance",
      "type": "error"
    },
    {
      "inputs": [
        {
          "internalType": "address",
          "name": "sender",
          "type": "address"
        },
        {
          "internalType": "uint256",
          "name": "balance",
          "type": "uint256"
        },
        {
          "internalType": "uint256",
          "name": "needed",
          "type": "uint256"
        }
      ],
      "name": "ERC20InsufficientBalance",
      "type": "error"
    },
    {
      "inputs": [
        {
          "internalType": "address",
          "name": "approver",
          "type": "address"
        }
      ],
      "name": "ERC20InvalidApprover",
      "type": "error"
    },
    {
      "inputs": [
        {
          "internalType": "address",
          "name": "receiver",
          "type": "address"
        }
      ],
      "name": "ERC20InvalidReceiver",
      "type": "error"
    },
    {
      "inputs": [
        {
          "internalType": "address",
          "name": "sender",
          "type": "address"
        }
      ],
      "name": "ERC20InvalidSender",
      "type": "error"
    },
    {
      "inputs": [
        {
          "internalType": "address",
          "name": "spender",
          "type": "address"
        }
      ],
      "name": "ERC20InvalidSpender",
      "type": "error"
    },
    {
      "inputs": [
        {
          "internalType": "address",
          "name": "receiver",
          "type": "address"
        },
        {
          "internalType": "uint256",
          "name": "assets",
          "type": "uint256"
        },
        {
          "internalType": "uint256",
          "name": "max",
          "type": "uint256"
        }
      ],
      "name": "ERC4626ExceededMaxDeposit",
      "type": "error"
    },
    {
      "inputs": [
        {
          "internalType": "address",
          "name": "receiver",
          "type": "address"
        },
        {
          "internalType": "uint256",
          "name": "shares",
          "type": "uint256"
        },
        {
          "internalType": "uint256",
          "name": "max",
          "type": "uint256"
        }
      ],
      "name": "ERC4626ExceededMaxMint",
      "type": "error"
    },
    {
      "inputs": [
        {
          "internalType": "address",
          "name": "owner",
          "type": "address"
        },
        {
          "internalType": "uint256",
          "name": "shares",
          "type": "uint256"
        },
        {
          "internalType": "uint256",
          "name": "max",
          "type": "uint256"
        }
      ],
      "name": "ERC4626ExceededMaxRedeem",
      "type": "error"
    },
    {
      "inputs": [
        {
          "internalType": "address",
          "name": "owner",
          "type": "address"
        },
        {
          "internalType": "uint256",
          "name": "assets",
          "type": "uint256"
        },
        {
          "internalType": "uint256",
          "name": "max",
          "type": "uint256"
        }
      ],
      "name": "ERC4626ExceededMaxWithdraw",
      "type": "error"
    },
    {
      "inputs": [
        {
          "internalType": "uint256",
          "name": "amount",
          "type": "uint256"
        },
        {
          "internalType": "uint256",
          "name": "balance",
          "type": "uint256"
        }
      ],
      "name": "InsufficientBalance",
      "type": "error"
    },
    {
      "inputs": [],
      "name": "InvalidBeneficiary",
      "type": "error"
    },
    {
      "inputs": [
        {
          "internalType": "uint256",
          "name": "moduleType",
          "type": "uint256"
        }
      ],
      "name": "InvalidModuleType",
      "type": "error"
    },
    {
      "inputs": [],
      "name": "LengthMismatch",
      "type": "error"
    },
    {
      "inputs": [],
      "name": "OnlyCrosschainModule",
      "type": "error"
    },
    {
      "inputs": [],
      "name": "OnlyFeeModule",
      "type": "error"
    },
    {
      "inputs": [],
      "name": "OnlyWithdrawModule",
      "type": "error"
    },
    {
      "inputs": [
        {
          "internalType": "address",
          "name": "token",
          "type": "address"
        }
      ],
      "name": "SafeERC20FailedOperation",
      "type": "error"
    },
    {
      "inputs": [
        {
          "internalType": "address",
          "name": "user",
          "type": "address"
        }
      ],
      "name": "Unauthorized",
      "type": "error"
    },
    {
      "inputs": [
        {
          "internalType": "address",
          "name": "withdrawModule",
          "type": "address"
        }
      ],
      "name": "WithdrawModuleInitialized",
      "type": "error"
    },
    {
      "anonymous": false,
      "inputs": [
        {
          "indexed": true,
          "internalType": "address",
          "name": "owner",
          "type": "address"
        },
        {
          "indexed": true,
          "internalType": "address",
          "name": "spender",
          "type": "address"
        },
        {
          "indexed": false,
          "internalType": "uint256",
          "name": "value",
          "type": "uint256"
        }
      ],
      "name": "Approval",
      "type": "event"
    },
    {
      "anonymous": false,
      "inputs": [
        {
          "indexed": true,
          "internalType": "address",
          "name": "sender",
          "type": "address"
        },
        {
          "indexed": true,
          "internalType": "address",
          "name": "owner",
          "type": "address"
        },
        {
          "indexed": false,
          "internalType": "uint256",
          "name": "assets",
          "type": "uint256"
        },
        {
          "indexed": false,
          "internalType": "uint256",
          "name": "shares",
          "type": "uint256"
        }
      ],
      "name": "Deposit",
      "type": "event"
    },
    {
      "anonymous": false,
      "inputs": [
        {
          "indexed": false,
          "internalType": "uint256",
          "name": "amount",
          "type": "uint256"
        },
        {
          "indexed": false,
          "internalType": "address",
          "name": "beneficiary",
          "type": "address"
        },
        {
          "indexed": false,
          "internalType": "uint256",
          "name": "timestamp",
          "type": "uint256"
        }
      ],
      "name": "FeeClaimed",
      "type": "event"
    },
    {
      "anonymous": false,
      "inputs": [
        {
          "indexed": false,
          "internalType": "uint256",
          "name": "shares",
          "type": "uint256"
        },
        {
          "indexed": false,
          "internalType": "uint256",
          "name": "timestamp",
          "type": "uint256"
        }
      ],
      "name": "ForceBurn",
      "type": "event"
    },
    {
      "anonymous": false,
      "inputs": [
        {
          "indexed": false,
          "internalType": "address",
          "name": "receiver",
          "type": "address"
        },
        {
          "indexed": false,
          "internalType": "uint256",
          "name": "shares",
          "type": "uint256"
        },
        {
          "indexed": false,
          "internalType": "uint256",
          "name": "timestamp",
          "type": "uint256"
        }
      ],
      "name": "ForceMint",
      "type": "event"
    },
    {
      "anonymous": false,
      "inputs": [
        {
          "indexed": false,
          "internalType": "address",
          "name": "moduleAddress",
          "type": "address"
        },
        {
          "indexed": false,
          "internalType": "uint256",
          "name": "moduleType",
          "type": "uint256"
        },
        {
          "indexed": false,
          "internalType": "uint256",
          "name": "timestamp",
          "type": "uint256"
        }
      ],
      "name": "ModuleUpdated",
      "type": "event"
    },
    {
      "anonymous": false,
      "inputs": [
        {
          "indexed": false,
          "internalType": "bool",
          "name": "state",
          "type": "bool"
        },
        {
          "indexed": false,
          "internalType": "uint256",
          "name": "timestamp",
          "type": "uint256"
        }
      ],
      "name": "SetLockDeposit",
      "type": "event"
    },
    {
      "anonymous": false,
      "inputs": [
        {
          "indexed": true,
          "internalType": "address",
          "name": "from",
          "type": "address"
        },
        {
          "indexed": true,
          "internalType": "address",
          "name": "to",
          "type": "address"
        },
        {
          "indexed": false,
          "internalType": "uint256",
          "name": "value",
          "type": "uint256"
        }
      ],
      "name": "Transfer",
      "type": "event"
    },
    {
      "anonymous": false,
      "inputs": [
        {
          "indexed": true,
          "internalType": "address",
          "name": "sender",
          "type": "address"
        },
        {
          "indexed": true,
          "internalType": "address",
          "name": "receiver",
          "type": "address"
        },
        {
          "indexed": true,
          "internalType": "address",
          "name": "owner",
          "type": "address"
        },
        {
          "indexed": false,
          "internalType": "uint256",
          "name": "assets",
          "type": "uint256"
        },
        {
          "indexed": false,
          "internalType": "uint256",
          "name": "shares",
          "type": "uint256"
        }
      ],
      "name": "Withdraw",
      "type": "event"
    },
    {
      "inputs": [
        {
          "internalType": "address",
          "name": "owner",
          "type": "address"
        },
        {
          "internalType": "address",
          "name": "spender",
          "type": "address"
        }
      ],
      "name": "allowance",
      "outputs": [
        {
          "internalType": "uint256",
          "name": "",
          "type": "uint256"
        }
      ],
      "stateMutability": "view",
      "type": "function"
    },
    {
      "inputs": [
        {
          "internalType": "address",
          "name": "spender",
          "type": "address"
        },
        {
          "internalType": "uint256",
          "name": "value",
          "type": "uint256"
        }
      ],
      "name": "approve",
      "outputs": [
        {
          "internalType": "bool",
          "name": "",
          "type": "bool"
        }
      ],
      "stateMutability": "nonpayable",
      "type": "function"
    },
    {
      "inputs": [],
      "name": "asset",
      "outputs": [
        {
          "internalType": "address",
          "name": "",
          "type": "address"
        }
      ],
      "stateMutability": "view",
      "type": "function"
    },
    {
      "inputs": [
        {
          "internalType": "address",
          "name": "account",
          "type": "address"
        }
      ],
      "name": "balanceOf",
      "outputs": [
        {
          "internalType": "uint256",
          "name": "",
          "type": "uint256"
        }
      ],
      "stateMutability": "view",
      "type": "function"
    },
    {
      "inputs": [
        {
          "internalType": "uint256",
          "name": "amount",
          "type": "uint256"
        },
        {
          "internalType": "address",
          "name": "beneficiary",
          "type": "address"
        }
      ],
      "name": "claimFee",
      "outputs": [],
      "stateMutability": "nonpayable",
      "type": "function"
    },
    {
      "inputs": [],
      "name": "claimableKeeper",
      "outputs": [
        {
          "internalType": "address",
          "name": "",
          "type": "address"
        }
      ],
      "stateMutability": "view",
      "type": "function"
    },
    {
      "inputs": [
        {
          "internalType": "uint256",
          "name": "shares",
          "type": "uint256"
        }
      ],
      "name": "convertToAssets",
      "outputs": [
        {
          "internalType": "uint256",
          "name": "",
          "type": "uint256"
        }
      ],
      "stateMutability": "view",
      "type": "function"
    },
    {
      "inputs": [
        {
          "internalType": "uint256",
          "name": "assets",
          "type": "uint256"
        }
      ],
      "name": "convertToShares",
      "outputs": [
        {
          "internalType": "uint256",
          "name": "",
          "type": "uint256"
        }
      ],
      "stateMutability": "view",
      "type": "function"
    },
    {
      "inputs": [],
      "name": "decimals",
      "outputs": [
        {
          "internalType": "uint8",
          "name": "",
          "type": "uint8"
        }
      ],
      "stateMutability": "view",
      "type": "function"
    },
    {
      "inputs": [
        {
          "internalType": "uint256",
          "name": "assets",
          "type": "uint256"
        },
        {
          "internalType": "address",
          "name": "receiver",
          "type": "address"
        }
      ],
      "name": "deposit",
      "outputs": [
        {
          "internalType": "uint256",
          "name": "",
          "type": "uint256"
        }
      ],
      "stateMutability": "nonpayable",
      "type": "function"
    },
    {
      "inputs": [
        {
          "internalType": "uint256",
          "name": "shares",
          "type": "uint256"
        }
      ],
      "name": "forceBurn",
      "outputs": [],
      "stateMutability": "nonpayable",
      "type": "function"
    },
    {
      "inputs": [
        {
          "internalType": "address",
          "name": "receiver",
          "type": "address"
        },
        {
          "internalType": "uint256",
          "name": "shares",
          "type": "uint256"
        }
      ],
      "name": "forceMint",
      "outputs": [],
      "stateMutability": "nonpayable",
      "type": "function"
    },
    {
      "inputs": [],
      "name": "getModules",
      "outputs": [
        {
          "internalType": "address",
          "name": "",
          "type": "address"
        },
        {
          "internalType": "address",
          "name": "",
          "type": "address"
        },
        {
          "internalType": "address",
          "name": "",
          "type": "address"
        },
        {
          "internalType": "address",
          "name": "",
          "type": "address"
        },
        {
          "internalType": "address",
          "name": "",
          "type": "address"
        }
      ],
      "stateMutability": "view",
      "type": "function"
    },
    {
      "inputs": [],
      "name": "getTreasury",
      "outputs": [
        {
          "internalType": "address",
          "name": "",
          "type": "address"
        }
      ],
      "stateMutability": "view",
      "type": "function"
    },
    {
      "inputs": [],
      "name": "getVaultBalance",
      "outputs": [
        {
          "internalType": "uint256",
          "name": "",
          "type": "uint256"
        }
      ],
      "stateMutability": "view",
      "type": "function"
    },
    {
      "inputs": [],
      "name": "lockDeposit",
      "outputs": [
        {
          "internalType": "bool",
          "name": "",
          "type": "bool"
        }
      ],
      "stateMutability": "view",
      "type": "function"
    },
    {
      "inputs": [
        {
          "internalType": "address",
          "name": "",
          "type": "address"
        }
      ],
      "name": "maxDeposit",
      "outputs": [
        {
          "internalType": "uint256",
          "name": "",
          "type": "uint256"
        }
      ],
      "stateMutability": "view",
      "type": "function"
    },
    {
      "inputs": [
        {
          "internalType": "address",
          "name": "",
          "type": "address"
        }
      ],
      "name": "maxMint",
      "outputs": [
        {
          "internalType": "uint256",
          "name": "",
          "type": "uint256"
        }
      ],
      "stateMutability": "view",
      "type": "function"
    },
    {
      "inputs": [
        {
          "internalType": "address",
          "name": "owner",
          "type": "address"
        }
      ],
      "name": "maxRedeem",
      "outputs": [
        {
          "internalType": "uint256",
          "name": "",
          "type": "uint256"
        }
      ],
      "stateMutability": "view",
      "type": "function"
    },
    {
      "inputs": [
        {
          "internalType": "address",
          "name": "owner",
          "type": "address"
        }
      ],
      "name": "maxWithdraw",
      "outputs": [
        {
          "internalType": "uint256",
          "name": "",
          "type": "uint256"
        }
      ],
      "stateMutability": "view",
      "type": "function"
    },
    {
      "inputs": [
        {
          "internalType": "uint256",
          "name": "shares",
          "type": "uint256"
        },
        {
          "internalType": "address",
          "name": "receiver",
          "type": "address"
        }
      ],
      "name": "mint",
      "outputs": [
        {
          "internalType": "uint256",
          "name": "",
          "type": "uint256"
        }
      ],
      "stateMutability": "nonpayable",
      "type": "function"
    },
    {
      "inputs": [],
      "name": "name",
      "outputs": [
        {
          "internalType": "string",
          "name": "",
          "type": "string"
        }
      ],
      "stateMutability": "view",
      "type": "function"
    },
    {
      "inputs": [
        {
          "internalType": "uint256",
          "name": "assets",
          "type": "uint256"
        }
      ],
      "name": "previewDeposit",
      "outputs": [
        {
          "internalType": "uint256",
          "name": "",
          "type": "uint256"
        }
      ],
      "stateMutability": "view",
      "type": "function"
    },
    {
      "inputs": [
        {
          "internalType": "uint256",
          "name": "shares",
          "type": "uint256"
        }
      ],
      "name": "previewMint",
      "outputs": [
        {
          "internalType": "uint256",
          "name": "",
          "type": "uint256"
        }
      ],
      "stateMutability": "view",
      "type": "function"
    },
    {
      "inputs": [
        {
          "internalType": "uint256",
          "name": "shares",
          "type": "uint256"
        }
      ],
      "name": "previewRedeem",
      "outputs": [
        {
          "internalType": "uint256",
          "name": "",
          "type": "uint256"
        }
      ],
      "stateMutability": "view",
      "type": "function"
    },
    {
      "inputs": [
        {
          "internalType": "uint256",
          "name": "assets",
          "type": "uint256"
        }
      ],
      "name": "previewWithdraw",
      "outputs": [
        {
          "internalType": "uint256",
          "name": "",
          "type": "uint256"
        }
      ],
      "stateMutability": "view",
      "type": "function"
    },
    {
      "inputs": [
        {
          "internalType": "uint256",
          "name": "shares",
          "type": "uint256"
        },
        {
          "internalType": "address",
          "name": "receiver",
          "type": "address"
        },
        {
          "internalType": "address",
          "name": "owner",
          "type": "address"
        }
      ],
      "name": "redeem",
      "outputs": [
        {
          "internalType": "uint256",
          "name": "",
          "type": "uint256"
        }
      ],
      "stateMutability": "nonpayable",
      "type": "function"
    },
    {
      "inputs": [
        {
          "internalType": "uint256",
          "name": "shares",
          "type": "uint256"
        },
        {
          "internalType": "address",
          "name": "sender",
          "type": "address"
        },
        {
          "internalType": "address",
          "name": "owner",
          "type": "address"
        }
      ],
      "name": "requestRedeem",
      "outputs": [],
      "stateMutability": "nonpayable",
      "type": "function"
    },
    {
      "inputs": [
        {
          "internalType": "bool",
          "name": "state",
          "type": "bool"
        }
      ],
      "name": "setLockDeposit",
      "outputs": [],
      "stateMutability": "nonpayable",
      "type": "function"
    },
    {
      "inputs": [
        {
          "internalType": "address",
          "name": "newModuleAddress",
          "type": "address"
        },
        {
          "internalType": "uint256",
          "name": "moduleType",
          "type": "uint256"
        }
      ],
      "name": "setModule",
      "outputs": [],
      "stateMutability": "nonpayable",
      "type": "function"
    },
    {
      "inputs": [
        {
          "internalType": "address[]",
          "name": "moduleAddresses",
          "type": "address[]"
        },
        {
          "internalType": "uint256[]",
          "name": "moduleTypes",
          "type": "uint256[]"
        }
      ],
      "name": "setModules",
      "outputs": [],
      "stateMutability": "nonpayable",
      "type": "function"
    },
    {
      "inputs": [],
      "name": "symbol",
      "outputs": [
        {
          "internalType": "string",
          "name": "",
          "type": "string"
        }
      ],
      "stateMutability": "view",
      "type": "function"
    },
    {
      "inputs": [],
      "name": "totalAssets",
      "outputs": [
        {
          "internalType": "uint256",
          "name": "",
          "type": "uint256"
        }
      ],
      "stateMutability": "view",
      "type": "function"
    },
    {
      "inputs": [],
      "name": "totalSupply",
      "outputs": [
        {
          "internalType": "uint256",
          "name": "",
          "type": "uint256"
        }
      ],
      "stateMutability": "view",
      "type": "function"
    },
    {
      "inputs": [
        {
          "internalType": "address",
          "name": "to",
          "type": "address"
        },
        {
          "internalType": "uint256",
          "name": "value",
          "type": "uint256"
        }
      ],
      "name": "transfer",
      "outputs": [
        {
          "internalType": "bool",
          "name": "",
          "type": "bool"
        }
      ],
      "stateMutability": "nonpayable",
      "type": "function"
    },
    {
      "inputs": [
        {
          "internalType": "address",
          "name": "from",
          "type": "address"
        },
        {
          "internalType": "address",
          "name": "to",
          "type": "address"
        },
        {
          "internalType": "uint256",
          "name": "value",
          "type": "uint256"
        }
      ],
      "name": "transferFrom",
      "outputs": [
        {
          "internalType": "bool",
          "name": "",
          "type": "bool"
        }
      ],
      "stateMutability": "nonpayable",
      "type": "function"
    },
    {
      "inputs": [],
      "name": "treasury",
      "outputs": [
        {
          "internalType": "address",
          "name": "",
          "type": "address"
        }
      ],
      "stateMutability": "view",
      "type": "function"
    },
    {
      "inputs": [
        {
          "internalType": "uint256",
          "name": "assets",
          "type": "uint256"
        },
        {
          "internalType": "address",
          "name": "receiver",
          "type": "address"
        },
        {
          "internalType": "address",
          "name": "owner",
          "type": "address"
        }
      ],
      "name": "withdraw",
      "outputs": [
        {
          "internalType": "uint256",
          "name": "",
          "type": "uint256"
        }
      ],
      "stateMutability": "nonpayable",
      "type": "function"
    }
  ],
  "bytecode": "0x60c06040523480156200001157600080fd5b50604051620046fd380380620046fd83398181016040528101906200003791906200048c565b83838381600390816200004b919062000787565b5080600490816200005d919062000787565b50505060008062000074836200017a60201b60201c565b91509150816200008657601262000088565b805b60ff1660a08160ff16815250508273ffffffffffffffffffffffffffffffffffffffff1660808173ffffffffffffffffffffffffffffffffffffffff168152505050505080600560006101000a81548173ffffffffffffffffffffffffffffffffffffffff021916908373ffffffffffffffffffffffffffffffffffffffff160217905550600560009054906101000a900473ffffffffffffffffffffffffffffffffffffffff16600b60006101000a81548173ffffffffffffffffffffffffffffffffffffffff021916908373ffffffffffffffffffffffffffffffffffffffff1602179055505050505062000937565b6000806000808473ffffffffffffffffffffffffffffffffffffffff1660405160240160405160208183030381529060405263313ce56760e01b6020820180517bffffffffffffffffffffffffffffffffffffffffffffffffffffffff8381831617835250505050604051620001f19190620008bb565b600060405180830381855afa9150503d80600081146200022e576040519150601f19603f3d011682016040523d82523d6000602084013e62000233565b606091505b50915091508180156200024857506020815110155b15620002855760008180602001905181019062000266919062000905565b905060ff801681116200028357600181945094505050506200028f565b505b6000809350935050505b915091565b6000604051905090565b600080fd5b600080fd5b600073ffffffffffffffffffffffffffffffffffffffff82169050919050565b6000620002d582620002a8565b9050919050565b620002e781620002c8565b8114620002f357600080fd5b50565b6000815190506200030781620002dc565b92915050565b600080fd5b600080fd5b6000601f19601f8301169050919050565b7f4e487b7100000000000000000000000000000000000000000000000000000000600052604160045260246000fd5b620003628262000317565b810181811067ffffffffffffffff8211171562000384576200038362000328565b5b80604052505050565b60006200039962000294565b9050620003a7828262000357565b919050565b600067ffffffffffffffff821115620003ca57620003c962000328565b5b620003d58262000317565b9050602081019050919050565b60005b8381101562000402578082015181840152602081019050620003e5565b60008484015250505050565b6000620004256200041f84620003ac565b6200038d565b90508281526020810184848401111562000444576200044362000312565b5b62000451848285620003e2565b509392505050565b600082601f8301126200047157620004706200030d565b5b8151620004838482602086016200040e565b91505092915050565b60008060008060808587031215620004a957620004a86200029e565b5b6000620004b987828801620002f6565b945050602085015167ffffffffffffffff811115620004dd57620004dc620002a3565b5b620004eb8782880162000459565b935050604085015167ffffffffffffffff8111156200050f576200050e620002a3565b5b6200051d8782880162000459565b92505060606200053087828801620002f6565b91505092959194509250565b600081519050919050565b7f4e487b7100000000000000000000000000000000000000000000000000000000600052602260045260246000fd5b600060028204905060018216806200058f57607f821691505b602082108103620005a557620005a462000547565b5b50919050565b60008190508160005260206000209050919050565b60006020601f8301049050919050565b600082821b905092915050565b6000600883026200060f7fffffffffffffffffffffffffffffffffffffffffffffffffffffffffffffffff82620005d0565b6200061b8683620005d0565b95508019841693508086168417925050509392505050565b6000819050919050565b6000819050919050565b600062000668620006626200065c8462000633565b6200063d565b62000633565b9050919050565b6000819050919050565b620006848362000647565b6200069c62000693826200066f565b848454620005dd565b825550505050565b600090565b620006b3620006a4565b620006c081848462000679565b505050565b5b81811015620006e857620006dc600082620006a9565b600181019050620006c6565b5050565b601f82111562000737576200070181620005ab565b6200070c84620005c0565b810160208510156200071c578190505b620007346200072b85620005c0565b830182620006c5565b50505b505050565b600082821c905092915050565b60006200075c600019846008026200073c565b1980831691505092915050565b600062000777838362000749565b9150826002028217905092915050565b62000792826200053c565b67ffffffffffffffff811115620007ae57620007ad62000328565b5b620007ba825462000576565b620007c7828285620006ec565b600060209050601f831160018114620007ff5760008415620007ea578287015190505b620007f6858262000769565b86555062000866565b601f1984166200080f86620005ab565b60005b82811015620008395784890151825560018201915060208501945060208101905062000812565b8683101562000859578489015162000855601f89168262000749565b8355505b6001600288020188555050505b505050505050565b600081519050919050565b600081905092915050565b600062000891826200086e565b6200089d818562000879565b9350620008af818560208601620003e2565b80840191505092915050565b6000620008c9828462000884565b915081905092915050565b620008df8162000633565b8114620008eb57600080fd5b50565b600081519050620008ff81620008d4565b92915050565b6000602082840312156200091e576200091d6200029e565b5b60006200092e84828501620008ee565b91505092915050565b60805160a051613da06200095d6000396000610e0201526000610f970152613da06000f3fe608060405234801561001057600080fd5b50600436106102325760003560e01c80637d41c86e11610130578063c63d75b6116100b8578063d905777e1161007c578063d905777e1461072d578063dd62ed3e1461075d578063e21240e21461078d578063ed12e8ef146107a9578063ef8b30f7146107c757610232565b8063c63d75b614610661578063c6e6f59214610691578063ce96cb77146106c1578063d1b844e6146106f1578063d3bb41ef1461070f57610232565b8063a9059cbb116100ff578063a9059cbb1461057f578063b2494df3146105af578063b3d7f6b9146105d1578063b460af9414610601578063ba0876521461063157610232565b80637d41c86e146104f95780638086ac5f1461051557806394bf804d1461053157806395d89b411461056157610232565b806331c10da3116101be5780634cdad506116101825780634cdad5061461042f57806361d027b31461045f5780636a9d5c841461047d5780636e553f651461049957806370a08231146104c957610232565b806331c10da31461038b57806338d52e0f146103a75780633b19e84a146103c5578063402d267d146103e35780634c4fd9d81461041357610232565b80630a28a477116102055780630a28a477146102d357806318160ddd1461030357806323b872dd14610321578063244d2b4014610351578063313ce5671461036d57610232565b806301e1d1141461023757806306fdde031461025557806307a2d13a14610273578063095ea7b3146102a3575b600080fd5b61023f6107f7565b60405161024c91906130e8565b60405180910390f35b61025d6109f1565b60405161026a9190613193565b60405180910390f35b61028d600480360381019061028891906131f5565b610a83565b60405161029a91906130e8565b60405180910390f35b6102bd60048036038101906102b89190613280565b610a97565b6040516102ca91906132db565b60405180910390f35b6102ed60048036038101906102e891906131f5565b610aba565b6040516102fa91906130e8565b60405180910390f35b61030b610ace565b60405161031891906130e8565b60405180910390f35b61033b600480360381019061033691906132f6565b610ad8565b60405161034891906132db565b60405180910390f35b61036b60048036038101906103669190613349565b610c41565b005b610375610df6565b60405161038291906133a5565b60405180910390f35b6103a560048036038101906103a091906131f5565b610e30565b005b6103af610f93565b6040516103bc91906133cf565b60405180910390f35b6103cd610fbb565b6040516103da91906133cf565b60405180910390f35b6103fd60048036038101906103f891906133ea565b610fe5565b60405161040a91906130e8565b60405180910390f35b61042d60048036038101906104289190613622565b61100f565b005b610449600480360381019061044491906131f5565b611136565b60405161045691906130e8565b60405180910390f35b61046761114a565b60405161047491906133cf565b60405180910390f35b61049760048036038101906104929190613280565b611170565b005b6104b360048036038101906104ae9190613349565b611240565b6040516104c091906130e8565b60405180910390f35b6104e360048036038101906104de91906133ea565b6112c2565b6040516104f091906130e8565b60405180910390f35b610513600480360381019061050e919061369a565b61130a565b005b61052f600480360381019061052a9190613280565b611470565b005b61054b60048036038101906105469190613349565b61150e565b60405161055891906130e8565b60405180910390f35b610569611590565b6040516105769190613193565b60405180910390f35b61059960048036038101906105949190613280565b611622565b6040516105a691906132db565b60405180910390f35b6105b761177f565b6040516105c89594939291906136ed565b60405180910390f35b6105eb60048036038101906105e691906131f5565b611847565b6040516105f891906130e8565b60405180910390f35b61061b6004803603810190610616919061369a565b61185b565b60405161062891906130e8565b60405180910390f35b61064b6004803603810190610646919061369a565b6118df565b60405161065891906130e8565b60405180910390f35b61067b600480360381019061067691906133ea565b611963565b60405161068891906130e8565b60405180910390f35b6106ab60048036038101906106a691906131f5565b61198d565b6040516106b891906130e8565b60405180910390f35b6106db60048036038101906106d691906133ea565b6119a1565b6040516106e891906130e8565b60405180910390f35b6106f96119bd565b60405161070691906132db565b60405180910390f35b6107176119d0565b60405161072491906133cf565b60405180910390f35b610747600480360381019061074291906133ea565b6119f6565b60405161075491906130e8565b60405180910390f35b61077760048036038101906107729190613740565b611a08565b60405161078491906130e8565b60405180910390f35b6107a760048036038101906107a291906137ac565b611a8f565b005b6107b1611bc1565b6040516107be91906130e8565b60405180910390f35b6107e160048036038101906107dc91906131f5565b611c6b565b6040516107ee91906130e8565b60405180910390f35b60008060008073ffffffffffffffffffffffffffffffffffffffff16600960009054906101000a900473ffffffffffffffffffffffffffffffffffffffff1673ffffffffffffffffffffffffffffffffffffffff16146108e557600960009054906101000a900473ffffffffffffffffffffffffffffffffffffffff1673ffffffffffffffffffffffffffffffffffffffff1663010442176040518163ffffffff1660e01b8152600401602060405180830381865afa1580156108be573d6000803e3d6000fd5b505050506040513d601f19601f820116820180604052508101906108e291906137ee565b91505b600073ffffffffffffffffffffffffffffffffffffffff16600760009054906101000a900473ffffffffffffffffffffffffffffffffffffffff1673ffffffffffffffffffffffffffffffffffffffff16146109d357600760009054906101000a900473ffffffffffffffffffffffffffffffffffffffff1673ffffffffffffffffffffffffffffffffffffffff166373acb5906040518163ffffffff1660e01b8152600401602060405180830381865afa1580156109a8573d6000803e3d6000fd5b505050506040513d601f19601f820116820180604052508101906109cc91906137ee565b90506109de565b6109db611bc1565b90505b81816109ea919061384a565b9250505090565b606060038054610a00906138ad565b80601f0160208091040260200160405190810160405280929190818152602001828054610a2c906138ad565b8015610a795780601f10610a4e57610100808354040283529160200191610a79565b820191906000526020600020905b815481529060010190602001808311610a5c57829003601f168201915b5050505050905090565b6000610a90826000611c7f565b9050919050565b600080610aa2611cd8565b9050610aaf818585611ce0565b600191505092915050565b6000610ac7826001611cf2565b9050919050565b6000600254905090565b60008073ffffffffffffffffffffffffffffffffffffffff16600860009054906101000a900473ffffffffffffffffffffffffffffffffffffffff1673ffffffffffffffffffffffffffffffffffffffff1614158015610bd15750600860009054906101000a900473ffffffffffffffffffffffffffffffffffffffff1673ffffffffffffffffffffffffffffffffffffffff166308e0d29d846040518263ffffffff1660e01b8152600401610b8e91906133cf565b602060405180830381865afa158015610bab573d6000803e3d6000fd5b505050506040513d601f19601f82011682018060405250810190610bcf91906138f3565b155b15610c1357826040517f8e4a23d6000000000000000000000000000000000000000000000000000000008152600401610c0a91906133cf565b60405180910390fd5b6000610c1d611cd8565b9050610c2a858285611d4b565b610c35858585611de0565b60019150509392505050565b600960009054906101000a900473ffffffffffffffffffffffffffffffffffffffff1673ffffffffffffffffffffffffffffffffffffffff163373ffffffffffffffffffffffffffffffffffffffff1614610cc8576040517f719a385800000000000000000000000000000000000000000000000000000000815260040160405180910390fd5b6000610cd2611bc1565b905080831115610d1b5782816040517fcf479181000000000000000000000000000000000000000000000000000000008152600401610d12929190613920565b60405180910390fd5b600073ffffffffffffffffffffffffffffffffffffffff168273ffffffffffffffffffffffffffffffffffffffff1603610d81576040517f5566df5c00000000000000000000000000000000000000000000000000000000815260040160405180910390fd5b610db6610d8c610f93565b600560009054906101000a900473ffffffffffffffffffffffffffffffffffffffff168486611ed4565b7f6de1781a5af95af67b71d595f310afd2183431c96626dfb517ea7bae46e396bc838342604051610de993929190613949565b60405180910390a1505050565b6000610e00611f56565b7f0000000000000000000000000000000000000000000000000000000000000000610e2b9190613980565b905090565b600660009054906101000a900473ffffffffffffffffffffffffffffffffffffffff1673ffffffffffffffffffffffffffffffffffffffff163373ffffffffffffffffffffffffffffffffffffffff1614610eb7576040517f91ffd34700000000000000000000000000000000000000000000000000000000815260040160405180910390fd5b6000600660009054906101000a900473ffffffffffffffffffffffffffffffffffffffff1673ffffffffffffffffffffffffffffffffffffffff1663ab1bf93f6040518163ffffffff1660e01b8152600401602060405180830381865afa158015610f26573d6000803e3d6000fd5b505050506040513d601f19601f82011682018060405250810190610f4a91906139ca565b9050610f568183611f5b565b7f8f68d3cc63feb5f221548d70ad65e87d9e930d037d42943f9539b3f090c562088242604051610f87929190613920565b60405180910390a15050565b60007f0000000000000000000000000000000000000000000000000000000000000000905090565b6000600560009054906101000a900473ffffffffffffffffffffffffffffffffffffffff16905090565b60007fffffffffffffffffffffffffffffffffffffffffffffffffffffffffffffffff9050919050565b600560009054906101000a900473ffffffffffffffffffffffffffffffffffffffff1673ffffffffffffffffffffffffffffffffffffffff163373ffffffffffffffffffffffffffffffffffffffff161461109f576040517f08c379a000000000000000000000000000000000000000000000000000000000815260040161109690613a43565b60405180910390fd5b80518251146110da576040517fff633a3800000000000000000000000000000000000000000000000000000000815260040160405180910390fd5b60005b8251811015611131576111248382815181106110fc576110fb613a63565b5b602002602001015183838151811061111757611116613a63565b5b6020026020010151611fdd565b80806001019150506110dd565b505050565b6000611143826000611c7f565b9050919050565b600560009054906101000a900473ffffffffffffffffffffffffffffffffffffffff1681565b600a60009054906101000a900473ffffffffffffffffffffffffffffffffffffffff1673ffffffffffffffffffffffffffffffffffffffff163373ffffffffffffffffffffffffffffffffffffffff16146111f7576040517f2adbc02800000000000000000000000000000000000000000000000000000000815260040160405180910390fd5b61120182826121e3565b7f88eb391f1bae0b644c8dd82852217dbad4ad2d1a3d640c578c148c932d8bab0c82824260405161123493929190613a92565b60405180910390a15050565b60008061124c83610fe5565b905080841115611297578284826040517f79012fb200000000000000000000000000000000000000000000000000000000815260040161128e93929190613a92565b60405180910390fd5b60006112a285611c6b565b90506112b76112af611cd8565b858784612265565b809250505092915050565b60008060008373ffffffffffffffffffffffffffffffffffffffff1673ffffffffffffffffffffffffffffffffffffffff168152602001908152602001600020549050919050565b600660009054906101000a900473ffffffffffffffffffffffffffffffffffffffff1673ffffffffffffffffffffffffffffffffffffffff163373ffffffffffffffffffffffffffffffffffffffff1614611391576040517f91ffd34700000000000000000000000000000000000000000000000000000000815260040160405180910390fd5b8173ffffffffffffffffffffffffffffffffffffffff168173ffffffffffffffffffffffffffffffffffffffff16146113d0576113cf818385611d4b565b5b61146b81600660009054906101000a900473ffffffffffffffffffffffffffffffffffffffff1673ffffffffffffffffffffffffffffffffffffffff1663ab1bf93f6040518163ffffffff1660e01b8152600401602060405180830381865afa158015611441573d6000803e3d6000fd5b505050506040513d601f19601f8201168201806040525081019061146591906139ca565b856126e3565b505050565b600560009054906101000a900473ffffffffffffffffffffffffffffffffffffffff1673ffffffffffffffffffffffffffffffffffffffff163373ffffffffffffffffffffffffffffffffffffffff1614611500576040517f08c379a00000000000000000000000000000000000000000000000000000000081526004016114f790613a43565b60405180910390fd5b61150a8282611fdd565b5050565b60008061151a83611963565b905080841115611565578284826040517f284ff66700000000000000000000000000000000000000000000000000000000815260040161155c93929190613a92565b60405180910390fd5b600061157085611847565b905061158561157d611cd8565b858388612265565b809250505092915050565b60606004805461159f906138ad565b80601f01602080910402602001604051908101604052809291908181526020018280546115cb906138ad565b80156116185780601f106115ed57610100808354040283529160200191611618565b820191906000526020600020905b8154815290600101906020018083116115fb57829003601f168201915b5050505050905090565b60008073ffffffffffffffffffffffffffffffffffffffff16600860009054906101000a900473ffffffffffffffffffffffffffffffffffffffff1673ffffffffffffffffffffffffffffffffffffffff161415801561171b5750600860009054906101000a900473ffffffffffffffffffffffffffffffffffffffff1673ffffffffffffffffffffffffffffffffffffffff166308e0d29d846040518263ffffffff1660e01b81526004016116d891906133cf565b602060405180830381865afa1580156116f5573d6000803e3d6000fd5b505050506040513d601f19601f8201168201806040525081019061171991906138f3565b155b1561175d57826040517f8e4a23d600000000000000000000000000000000000000000000000000000000815260040161175491906133cf565b60405180910390fd5b6000611767611cd8565b9050611774818585611de0565b600191505092915050565b6000806000806000600660009054906101000a900473ffffffffffffffffffffffffffffffffffffffff16600760009054906101000a900473ffffffffffffffffffffffffffffffffffffffff16600860009054906101000a900473ffffffffffffffffffffffffffffffffffffffff16600960009054906101000a900473ffffffffffffffffffffffffffffffffffffffff16600a60009054906101000a900473ffffffffffffffffffffffffffffffffffffffff16945094509450945094509091929394565b6000611854826001611c7f565b9050919050565b600080611867836119a1565b9050808511156118b2578285826040517ffe9cceec0000000000000000000000000000000000000000000000000000000081526004016118a993929190613a92565b60405180910390fd5b60006118bd86610aba565b90506118d36118ca611cd8565b86868985612908565b80925050509392505050565b6000806118eb836119f6565b905080851115611936578285826040517fb94abeec00000000000000000000000000000000000000000000000000000000815260040161192d93929190613a92565b60405180910390fd5b600061194186611136565b905061195761194e611cd8565b8686848a612908565b80925050509392505050565b60007fffffffffffffffffffffffffffffffffffffffffffffffffffffffffffffffff9050919050565b600061199a826000611cf2565b9050919050565b60006119b66119af836112c2565b6000611c7f565b9050919050565b600b60149054906101000a900460ff1681565b600b60009054906101000a900473ffffffffffffffffffffffffffffffffffffffff1681565b6000611a01826112c2565b9050919050565b6000600160008473ffffffffffffffffffffffffffffffffffffffff1673ffffffffffffffffffffffffffffffffffffffff16815260200190815260200160002060008373ffffffffffffffffffffffffffffffffffffffff1673ffffffffffffffffffffffffffffffffffffffff16815260200190815260200160002054905092915050565b600560009054906101000a900473ffffffffffffffffffffffffffffffffffffffff1673ffffffffffffffffffffffffffffffffffffffff163373ffffffffffffffffffffffffffffffffffffffff1614611b1f576040517f08c379a0000000000000000000000000000000000000000000000000000000008152600401611b1690613a43565b60405180910390fd5b801515600b60149054906101000a900460ff16151503611b6b576040517fa741a04500000000000000000000000000000000000000000000000000000000815260040160405180910390fd5b80600b60146101000a81548160ff0219169083151502179055507feb3a020363a3e2577284557489f185c7cf3ca246b63dd55a53aedbb3ae9d77048142604051611bb6929190613ac9565b60405180910390a150565b6000611bcb610f93565b73ffffffffffffffffffffffffffffffffffffffff166370a08231600560009054906101000a900473ffffffffffffffffffffffffffffffffffffffff166040518263ffffffff1660e01b8152600401611c2591906133cf565b602060405180830381865afa158015611c42573d6000803e3d6000fd5b505050506040513d601f19601f82011682018060405250810190611c6691906137ee565b905090565b6000611c78826000611cf2565b9050919050565b6000611cd06001611c8e6107f7565b611c989190613af2565b611ca0611f56565b600a611cac9190613c59565b611cb4610ace565b611cbe9190613af2565b8486612cb3909392919063ffffffff16565b905092915050565b600033905090565b611ced8383836001612d02565b505050565b6000611d43611cff611f56565b600a611d0b9190613c59565b611d13610ace565b611d1d9190613af2565b6001611d276107f7565b611d319190613af2565b8486612cb3909392919063ffffffff16565b905092915050565b6000611d578484611a08565b90507fffffffffffffffffffffffffffffffffffffffffffffffffffffffffffffffff811015611dda5781811015611dca578281836040517ffb8f41b2000000000000000000000000000000000000000000000000000000008152600401611dc193929190613a92565b60405180910390fd5b611dd984848484036000612d02565b5b50505050565b600073ffffffffffffffffffffffffffffffffffffffff168373ffffffffffffffffffffffffffffffffffffffff1603611e525760006040517f96c6fd1e000000000000000000000000000000000000000000000000000000008152600401611e4991906133cf565b60405180910390fd5b600073ffffffffffffffffffffffffffffffffffffffff168273ffffffffffffffffffffffffffffffffffffffff1603611ec45760006040517fec442f05000000000000000000000000000000000000000000000000000000008152600401611ebb91906133cf565b60405180910390fd5b611ecf8383836126e3565b505050565b611f50848573ffffffffffffffffffffffffffffffffffffffff166323b872dd868686604051602401611f0993929190613ca4565b604051602081830303815290604052915060e01b6020820180517bffffffffffffffffffffffffffffffffffffffffffffffffffffffff8381831617835250505050612ed9565b50505050565b600090565b600073ffffffffffffffffffffffffffffffffffffffff168273ffffffffffffffffffffffffffffffffffffffff1603611fcd5760006040517f96c6fd1e000000000000000000000000000000000000000000000000000000008152600401611fc491906133cf565b60405180910390fd5b611fd9826000836126e3565b5050565b6000810361202b5781600660006101000a81548173ffffffffffffffffffffffffffffffffffffffff021916908373ffffffffffffffffffffffffffffffffffffffff1602179055506121a4565b600181036120795781600760006101000a81548173ffffffffffffffffffffffffffffffffffffffff021916908373ffffffffffffffffffffffffffffffffffffffff1602179055506121a3565b600281036120c75781600860006101000a81548173ffffffffffffffffffffffffffffffffffffffff021916908373ffffffffffffffffffffffffffffffffffffffff1602179055506121a2565b600381036121155781600960006101000a81548173ffffffffffffffffffffffffffffffffffffffff021916908373ffffffffffffffffffffffffffffffffffffffff1602179055506121a1565b600481036121635781600a60006101000a81548173ffffffffffffffffffffffffffffffffffffffff021916908373ffffffffffffffffffffffffffffffffffffffff1602179055506121a0565b806040517f2e45609e00000000000000000000000000000000000000000000000000000000815260040161219791906130e8565b60405180910390fd5b5b5b5b5b7ff4f3717d63637e55829a5e086a2d5b3c66deab26d1e817c632f8a3120c86754a8282426040516121d793929190613a92565b60405180910390a15050565b600073ffffffffffffffffffffffffffffffffffffffff168273ffffffffffffffffffffffffffffffffffffffff16036122555760006040517fec442f0500000000000000000000000000000000000000000000000000000000815260040161224c91906133cf565b60405180910390fd5b612261600083836126e3565b5050565b600b60149054906101000a900460ff16156122ac576040517ff38b9b5b00000000000000000000000000000000000000000000000000000000815260040160405180910390fd5b600073ffffffffffffffffffffffffffffffffffffffff16600860009054906101000a900473ffffffffffffffffffffffffffffffffffffffff1673ffffffffffffffffffffffffffffffffffffffff16141580156123a45750600860009054906101000a900473ffffffffffffffffffffffffffffffffffffffff1673ffffffffffffffffffffffffffffffffffffffff166308e0d29d846040518263ffffffff1660e01b815260040161236191906133cf565b602060405180830381865afa15801561237e573d6000803e3d6000fd5b505050506040513d601f19601f820116820180604052508101906123a291906138f3565b155b156123e657826040517f8e4a23d60000000000000000000000000000000000000000000000000000000081526004016123dd91906133cf565b60405180910390fd5b600073ffffffffffffffffffffffffffffffffffffffff16600960009054906101000a900473ffffffffffffffffffffffffffffffffffffffff1673ffffffffffffffffffffffffffffffffffffffff16146124bf57600960009054906101000a900473ffffffffffffffffffffffffffffffffffffffff1673ffffffffffffffffffffffffffffffffffffffff1663b26cc3946040518163ffffffff1660e01b8152600401600060405180830381600087803b1580156124a657600080fd5b505af11580156124ba573d6000803e3d6000fd5b505050505b6124f46124ca610f93565b85600560009054906101000a900473ffffffffffffffffffffffffffffffffffffffff1685611ed4565b6124fe83826121e3565b600560009054906101000a900473ffffffffffffffffffffffffffffffffffffffff1673ffffffffffffffffffffffffffffffffffffffff166393dc8c7e836040518263ffffffff1660e01b815260040161255991906130e8565b600060405180830381600087803b15801561257357600080fd5b505af1158015612587573d6000803e3d6000fd5b50505050600073ffffffffffffffffffffffffffffffffffffffff16600760009054906101000a900473ffffffffffffffffffffffffffffffffffffffff1673ffffffffffffffffffffffffffffffffffffffff161461267657600760009054906101000a900473ffffffffffffffffffffffffffffffffffffffff1673ffffffffffffffffffffffffffffffffffffffff1663f141b52b612627610f93565b6040518263ffffffff1660e01b815260040161264391906133cf565b600060405180830381600087803b15801561265d57600080fd5b505af1158015612671573d6000803e3d6000fd5b505050505b8273ffffffffffffffffffffffffffffffffffffffff168473ffffffffffffffffffffffffffffffffffffffff167fdcbc1c05240f31ff3ad067ef1ee35ce4997762752e3a095284754544f4c709d784846040516126d5929190613920565b60405180910390a350505050565b600073ffffffffffffffffffffffffffffffffffffffff168373ffffffffffffffffffffffffffffffffffffffff16036127355780600260008282546127299190613af2565b92505081905550612808565b60008060008573ffffffffffffffffffffffffffffffffffffffff1673ffffffffffffffffffffffffffffffffffffffff168152602001908152602001600020549050818110156127c1578381836040517fe450d38c0000000000000000000000000000000000000000000000000000000081526004016127b893929190613a92565b60405180910390fd5b8181036000808673ffffffffffffffffffffffffffffffffffffffff1673ffffffffffffffffffffffffffffffffffffffff16815260200190815260200160002081905550505b600073ffffffffffffffffffffffffffffffffffffffff168273ffffffffffffffffffffffffffffffffffffffff1603612851578060026000828254039250508190555061289e565b806000808473ffffffffffffffffffffffffffffffffffffffff1673ffffffffffffffffffffffffffffffffffffffff168152602001908152602001600020600082825401925050819055505b8173ffffffffffffffffffffffffffffffffffffffff168373ffffffffffffffffffffffffffffffffffffffff167fddf252ad1be2c89b69c2b068fc378daa952ba7f163c4a11628f55a4df523b3ef836040516128fb91906130e8565b60405180910390a3505050565b600073ffffffffffffffffffffffffffffffffffffffff16600960009054906101000a900473ffffffffffffffffffffffffffffffffffffffff1673ffffffffffffffffffffffffffffffffffffffff16146129e157600960009054906101000a900473ffffffffffffffffffffffffffffffffffffffff1673ffffffffffffffffffffffffffffffffffffffff1663b26cc3946040518163ffffffff1660e01b8152600401600060405180830381600087803b1580156129c857600080fd5b505af11580156129dc573d6000803e3d6000fd5b505050505b8273ffffffffffffffffffffffffffffffffffffffff168573ffffffffffffffffffffffffffffffffffffffff1614612a2057612a1f838683611d4b565b5b600073ffffffffffffffffffffffffffffffffffffffff16600660009054906101000a900473ffffffffffffffffffffffffffffffffffffffff1673ffffffffffffffffffffffffffffffffffffffff1614158015612acd5750600660009054906101000a900473ffffffffffffffffffffffffffffffffffffffff1673ffffffffffffffffffffffffffffffffffffffff163373ffffffffffffffffffffffffffffffffffffffff1614155b15612b04576040517f91ffd34700000000000000000000000000000000000000000000000000000000815260040160405180910390fd5b612b0e8382611f5b565b612b43612b19610f93565b600b60009054906101000a900473ffffffffffffffffffffffffffffffffffffffff168685611ed4565b600073ffffffffffffffffffffffffffffffffffffffff16600760009054906101000a900473ffffffffffffffffffffffffffffffffffffffff1673ffffffffffffffffffffffffffffffffffffffff1614612c2e57600760009054906101000a900473ffffffffffffffffffffffffffffffffffffffff1673ffffffffffffffffffffffffffffffffffffffff1663f141b52b612bdf610f93565b6040518263ffffffff1660e01b8152600401612bfb91906133cf565b600060405180830381600087803b158015612c1557600080fd5b505af1158015612c29573d6000803e3d6000fd5b505050505b8273ffffffffffffffffffffffffffffffffffffffff168473ffffffffffffffffffffffffffffffffffffffff168673ffffffffffffffffffffffffffffffffffffffff167ffbde797d201c681b91056529119e0b02407c7bb96a4a2c75c01fc9667232c8db8585604051612ca4929190613920565b60405180910390a45050505050565b6000612ce3612cc183612f7b565b8015612cde575060008480612cd957612cd8613cdb565b5b868809115b612fa9565b612cee868686612fb5565b612cf89190613af2565b9050949350505050565b600073ffffffffffffffffffffffffffffffffffffffff168473ffffffffffffffffffffffffffffffffffffffff1603612d745760006040517fe602df05000000000000000000000000000000000000000000000000000000008152600401612d6b91906133cf565b60405180910390fd5b600073ffffffffffffffffffffffffffffffffffffffff168373ffffffffffffffffffffffffffffffffffffffff1603612de65760006040517f94280d62000000000000000000000000000000000000000000000000000000008152600401612ddd91906133cf565b60405180910390fd5b81600160008673ffffffffffffffffffffffffffffffffffffffff1673ffffffffffffffffffffffffffffffffffffffff16815260200190815260200160002060008573ffffffffffffffffffffffffffffffffffffffff1673ffffffffffffffffffffffffffffffffffffffff168152602001908152602001600020819055508015612ed3578273ffffffffffffffffffffffffffffffffffffffff168473ffffffffffffffffffffffffffffffffffffffff167f8c5be1e5ebec7d5bd14f71427d1e84f3dd0314c0f7b2291e5b200ac8c7c3b92584604051612eca91906130e8565b60405180910390a35b50505050565b600080602060008451602086016000885af180612efc576040513d6000823e3d81fd5b3d925060005191505060008214612f17576001811415612f33565b60008473ffffffffffffffffffffffffffffffffffffffff163b145b15612f7557836040517f5274afe7000000000000000000000000000000000000000000000000000000008152600401612f6c91906133cf565b60405180910390fd5b50505050565b600060016002836003811115612f9457612f93613d0a565b5b612f9e9190613d39565b60ff16149050919050565b60008115159050919050565b6000808385029050600080198587098281108382030391505060008103612ff057838281612fe657612fe5613cdb565b5b049250505061309c565b8084116130105761300f61300a60008614601260116130a3565b6130bd565b5b600084868809905082811182039150808303925060008560000386169050808604955080840493506001818260000304019050808302841793506000600287600302189050808702600203810290508087026002038102905080870260020381029050808702600203810290508087026002038102905080870260020381029050808502955050505050505b9392505050565b60006130ae84612fa9565b82841802821890509392505050565b634e487b71600052806020526024601cfd5b6000819050919050565b6130e2816130cf565b82525050565b60006020820190506130fd60008301846130d9565b92915050565b600081519050919050565b600082825260208201905092915050565b60005b8381101561313d578082015181840152602081019050613122565b60008484015250505050565b6000601f19601f8301169050919050565b600061316582613103565b61316f818561310e565b935061317f81856020860161311f565b61318881613149565b840191505092915050565b600060208201905081810360008301526131ad818461315a565b905092915050565b6000604051905090565b600080fd5b600080fd5b6131d2816130cf565b81146131dd57600080fd5b50565b6000813590506131ef816131c9565b92915050565b60006020828403121561320b5761320a6131bf565b5b6000613219848285016131e0565b91505092915050565b600073ffffffffffffffffffffffffffffffffffffffff82169050919050565b600061324d82613222565b9050919050565b61325d81613242565b811461326857600080fd5b50565b60008135905061327a81613254565b92915050565b60008060408385031215613297576132966131bf565b5b60006132a58582860161326b565b92505060206132b6858286016131e0565b9150509250929050565b60008115159050919050565b6132d5816132c0565b82525050565b60006020820190506132f060008301846132cc565b92915050565b60008060006060848603121561330f5761330e6131bf565b5b600061331d8682870161326b565b935050602061332e8682870161326b565b925050604061333f868287016131e0565b9150509250925092565b600080604083850312156133605761335f6131bf565b5b600061336e858286016131e0565b925050602061337f8582860161326b565b9150509250929050565b600060ff82169050919050565b61339f81613389565b82525050565b60006020820190506133ba6000830184613396565b92915050565b6133c981613242565b82525050565b60006020820190506133e460008301846133c0565b92915050565b600060208284031215613400576133ff6131bf565b5b600061340e8482850161326b565b91505092915050565b600080fd5b7f4e487b7100000000000000000000000000000000000000000000000000000000600052604160045260246000fd5b61345482613149565b810181811067ffffffffffffffff821117156134735761347261341c565b5b80604052505050565b60006134866131b5565b9050613492828261344b565b919050565b600067ffffffffffffffff8211156134b2576134b161341c565b5b602082029050602081019050919050565b600080fd5b60006134db6134d684613497565b61347c565b905080838252602082019050602084028301858111156134fe576134fd6134c3565b5b835b818110156135275780613513888261326b565b845260208401935050602081019050613500565b5050509392505050565b600082601f83011261354657613545613417565b5b81356135568482602086016134c8565b91505092915050565b600067ffffffffffffffff82111561357a5761357961341c565b5b602082029050602081019050919050565b600061359e6135998461355f565b61347c565b905080838252602082019050602084028301858111156135c1576135c06134c3565b5b835b818110156135ea57806135d688826131e0565b8452602084019350506020810190506135c3565b5050509392505050565b600082601f83011261360957613608613417565b5b813561361984826020860161358b565b91505092915050565b60008060408385031215613639576136386131bf565b5b600083013567ffffffffffffffff811115613657576136566131c4565b5b61366385828601613531565b925050602083013567ffffffffffffffff811115613684576136836131c4565b5b613690858286016135f4565b9150509250929050565b6000806000606084860312156136b3576136b26131bf565b5b60006136c1868287016131e0565b93505060206136d28682870161326b565b92505060406136e38682870161326b565b9150509250925092565b600060a08201905061370260008301886133c0565b61370f60208301876133c0565b61371c60408301866133c0565b61372960608301856133c0565b61373660808301846133c0565b9695505050505050565b60008060408385031215613757576137566131bf565b5b60006137658582860161326b565b92505060206137768582860161326b565b9150509250929050565b613789816132c0565b811461379457600080fd5b50565b6000813590506137a681613780565b92915050565b6000602082840312156137c2576137c16131bf565b5b60006137d084828501613797565b91505092915050565b6000815190506137e8816131c9565b92915050565b600060208284031215613804576138036131bf565b5b6000613812848285016137d9565b91505092915050565b7f4e487b7100000000000000000000000000000000000000000000000000000000600052601160045260246000fd5b6000613855826130cf565b9150613860836130cf565b92508282039050818111156138785761387761381b565b5b92915050565b7f4e487b7100000000000000000000000000000000000000000000000000000000600052602260045260246000fd5b600060028204905060018216806138c557607f821691505b6020821081036138d8576138d761387e565b5b50919050565b6000815190506138ed81613780565b92915050565b600060208284031215613909576139086131bf565b5b6000613917848285016138de565b91505092915050565b600060408201905061393560008301856130d9565b61394260208301846130d9565b9392505050565b600060608201905061395e60008301866130d9565b61396b60208301856133c0565b61397860408301846130d9565b949350505050565b600061398b82613389565b915061399683613389565b9250828201905060ff8111156139af576139ae61381b565b5b92915050565b6000815190506139c481613254565b92915050565b6000602082840312156139e0576139df6131bf565b5b60006139ee848285016139b5565b91505092915050565b7f5661756c743a204f6e6c79205472656173757279000000000000000000000000600082015250565b6000613a2d60148361310e565b9150613a38826139f7565b602082019050919050565b60006020820190508181036000830152613a5c81613a20565b9050919050565b7f4e487b7100000000000000000000000000000000000000000000000000000000600052603260045260246000fd5b6000606082019050613aa760008301866133c0565b613ab460208301856130d9565b613ac160408301846130d9565b949350505050565b6000604082019050613ade60008301856132cc565b613aeb60208301846130d9565b9392505050565b6000613afd826130cf565b9150613b08836130cf565b9250828201905080821115613b2057613b1f61381b565b5b92915050565b60008160011c9050919050565b6000808291508390505b6001851115613b7d57808604811115613b5957613b5861381b565b5b6001851615613b685780820291505b8081029050613b7685613b26565b9450613b3d565b94509492505050565b600082613b965760019050613c52565b81613ba45760009050613c52565b8160018114613bba5760028114613bc457613bf3565b6001915050613c52565b60ff841115613bd657613bd561381b565b5b8360020a915084821115613bed57613bec61381b565b5b50613c52565b5060208310610133831016604e8410600b8410161715613c285782820a905083811115613c2357613c2261381b565b5b613c52565b613c358484846001613b33565b92509050818404811115613c4c57613c4b61381b565b5b81810290505b9392505050565b6000613c64826130cf565b9150613c6f83613389565b9250613c9c7fffffffffffffffffffffffffffffffffffffffffffffffffffffffffffffffff8484613b86565b905092915050565b6000606082019050613cb960008301866133c0565b613cc660208301856133c0565b613cd360408301846130d9565b949350505050565b7f4e487b7100000000000000000000000000000000000000000000000000000000600052601260045260246000fd5b7f4e487b7100000000000000000000000000000000000000000000000000000000600052602160045260246000fd5b6000613d4482613389565b9150613d4f83613389565b925082613d5f57613d5e613cdb565b5b82820690509291505056fea26469706673582212206ac56921108eb1ef497dc2df070a10090c407a718dedbcda8f61847b9d57757364736f6c63430008160033",
  "linkReferences": {},
  "deployedLinkReferences": {}
}