{
  "_format": "hh-sol-artifact-1",
  "contractName": "Treasury",
  "sourceName": "contracts/Treasury.sol",
  "abi": [
    {
      "inputs": [
        {
          "internalType": "bytes32",
          "name": "callId",
          "type": "bytes32"
        }
      ],
      "name": "CallAlreadyApproved",
      "type": "error"
    },
    {
      "inputs": [
        {
          "internalType": "bytes32",
          "name": "callId",
          "type": "bytes32"
        }
      ],
      "name": "CallNotApproved",
      "type": "error"
    },
    {
      "inputs": [
        {
          "internalType": "bytes32",
          "name": "callId",
          "type": "bytes32"
        },
        {
          "internalType": "bytes4",
          "name": "selector",
          "type": "bytes4"
        },
        {
          "internalType": "bytes",
          "name": "callData",
          "type": "bytes"
        }
      ],
      "name": "ConditionNotMet",
      "type": "error"
    },
    {
      "inputs": [
        {
          "internalType": "bytes32",
          "name": "callId",
          "type": "bytes32"
        },
        {
          "internalType": "bytes4",
          "name": "selector",
          "type": "bytes4"
        },
        {
          "internalType": "bytes4",
          "name": "expectedSelector",
          "type": "bytes4"
        }
      ],
      "name": "SelectorDoesNotMatch",
      "type": "error"
    },
    {
      "inputs": [
        {
          "internalType": "bytes32",
          "name": "callId",
          "type": "bytes32"
        },
        {
          "internalType": "address",
          "name": "target",
          "type": "address"
        },
        {
          "internalType": "address",
          "name": "expectedTarget",
          "type": "address"
        }
      ],
      "name": "TargetDoesNotMatch",
      "type": "error"
    },
    {
      "inputs": [
        {
          "internalType": "address",
          "name": "sender",
          "type": "address"
        },
        {
          "internalType": "address",
          "name": "expectedSender",
          "type": "address"
        }
      ],
      "name": "Unauthorized",
      "type": "error"
    },
    {
      "anonymous": false,
      "inputs": [
        {
          "indexed": true,
          "internalType": "bytes32",
          "name": "callId",
          "type": "bytes32"
        },
        {
          "indexed": true,
          "internalType": "address",
          "name": "target",
          "type": "address"
        },
        {
          "indexed": true,
          "internalType": "bytes4",
          "name": "selector",
          "type": "bytes4"
        },
        {
          "indexed": false,
          "internalType": "bytes",
          "name": "conditions",
          "type": "bytes"
        },
        {
          "indexed": false,
          "internalType": "bytes",
          "name": "mask",
          "type": "bytes"
        }
      ],
      "name": "CallApproved",
      "type": "event"
    },
    {
      "anonymous": false,
      "inputs": [
        {
          "indexed": true,
          "internalType": "bytes32",
          "name": "callId",
          "type": "bytes32"
        },
        {
          "indexed": true,
          "internalType": "address",
          "name": "target",
          "type": "address"
        },
        {
          "indexed": true,
          "internalType": "bytes4",
          "name": "selector",
          "type": "bytes4"
        },
        {
          "indexed": false,
          "internalType": "bytes",
          "name": "data",
          "type": "bytes"
        }
      ],
      "name": "CallExecuted",
      "type": "event"
    },
    {
      "inputs": [
        {
          "internalType": "address",
          "name": "_target",
          "type": "address"
        },
        {
          "internalType": "bytes4",
          "name": "_selector",
          "type": "bytes4"
        },
        {
          "internalType": "bytes",
          "name": "_conditions",
          "type": "bytes"
        },
        {
          "internalType": "bytes",
          "name": "_mask",
          "type": "bytes"
        }
      ],
      "name": "addApprovedCall",
      "outputs": [],
      "stateMutability": "nonpayable",
      "type": "function"
    },
    {
      "inputs": [
        {
          "internalType": "address",
          "name": "_asset",
          "type": "address"
        },
        {
          "internalType": "uint256",
          "name": "decimals",
          "type": "uint256"
        },
        {
          "internalType": "address",
          "name": "priceOracle",
          "type": "address"
        },
        {
          "internalType": "bytes",
          "name": "getPriceCall",
          "type": "bytes"
        }
      ],
      "name": "addAsset",
      "outputs": [],
      "stateMutability": "nonpayable",
      "type": "function"
    },
    {
      "inputs": [
        {
          "internalType": "address",
          "name": "",
          "type": "address"
        }
      ],
      "name": "allocationRates",
      "outputs": [
        {
          "internalType": "uint256",
          "name": "",
          "type": "uint256"
        }
      ],
      "stateMutability": "view",
      "type": "function"
    },
    {
      "inputs": [
        {
          "internalType": "bytes32",
          "name": "",
          "type": "bytes32"
        }
      ],
      "name": "approvedCalls",
      "outputs": [
        {
          "internalType": "bool",
          "name": "",
          "type": "bool"
        }
      ],
      "stateMutability": "view",
      "type": "function"
    },
    {
      "inputs": [],
      "name": "asset",
      "outputs": [
        {
          "internalType": "address",
          "name": "",
          "type": "address"
        }
      ],
      "stateMutability": "view",
      "type": "function"
    },
    {
      "inputs": [
        {
          "internalType": "address",
          "name": "_target",
          "type": "address"
        },
        {
          "internalType": "bytes4",
          "name": "_selector",
          "type": "bytes4"
        },
        {
          "internalType": "bytes",
          "name": "_data",
          "type": "bytes"
        },
        {
          "internalType": "bytes32",
          "name": "callId",
          "type": "bytes32"
        }
      ],
      "name": "call",
      "outputs": [],
      "stateMutability": "nonpayable",
      "type": "function"
    },
    {
      "inputs": [
        {
          "internalType": "bytes32",
          "name": "",
          "type": "bytes32"
        }
      ],
      "name": "calls",
      "outputs": [
        {
          "internalType": "address",
          "name": "target",
          "type": "address"
        },
        {
          "internalType": "bytes4",
          "name": "selector",
          "type": "bytes4"
        },
        {
          "internalType": "bytes",
          "name": "conditions",
          "type": "bytes"
        },
        {
          "internalType": "bytes",
          "name": "mask",
          "type": "bytes"
        }
      ],
      "stateMutability": "view",
      "type": "function"
    },
    {
      "inputs": [],
      "name": "curator",
      "outputs": [
        {
          "internalType": "address",
          "name": "",
          "type": "address"
        }
      ],
      "stateMutability": "view",
      "type": "function"
    },
    {
      "inputs": [
        {
          "internalType": "address",
          "name": "_target",
          "type": "address"
        },
        {
          "internalType": "bytes4",
          "name": "_selector",
          "type": "bytes4"
        },
        {
          "internalType": "bytes",
          "name": "_conditions",
          "type": "bytes"
        },
        {
          "internalType": "bytes",
          "name": "_mask",
          "type": "bytes"
        }
      ],
      "name": "getCallId",
      "outputs": [
        {
          "internalType": "bytes32",
          "name": "",
          "type": "bytes32"
        }
      ],
      "stateMutability": "pure",
      "type": "function"
    },
    {
      "inputs": [
        {
          "internalType": "address",
          "name": "_asset",
          "type": "address"
        }
      ],
      "name": "initialize",
      "outputs": [],
      "stateMutability": "nonpayable",
      "type": "function"
    },
    {
      "inputs": [
        {
          "internalType": "address",
          "name": "operator",
          "type": "address"
        },
        {
          "internalType": "address",
          "name": "from",
          "type": "address"
        },
        {
          "internalType": "uint256",
          "name": "id",
          "type": "uint256"
        },
        {
          "internalType": "uint256",
          "name": "value",
          "type": "uint256"
        },
        {
          "internalType": "bytes",
          "name": "data",
          "type": "bytes"
        }
      ],
      "name": "onERC1155Received",
      "outputs": [
        {
          "internalType": "bytes4",
          "name": "",
          "type": "bytes4"
        }
      ],
      "stateMutability": "nonpayable",
      "type": "function"
    },
    {
      "inputs": [],
      "name": "owner",
      "outputs": [
        {
          "internalType": "address",
          "name": "",
          "type": "address"
        }
      ],
      "stateMutability": "view",
      "type": "function"
    },
    {
      "inputs": [
        {
          "internalType": "address",
          "name": "target",
          "type": "address"
        },
        {
          "internalType": "uint256",
          "name": "rate",
          "type": "uint256"
        }
      ],
      "name": "setAllocationRate",
      "outputs": [],
      "stateMutability": "nonpayable",
      "type": "function"
    },
    {
      "inputs": [
        {
          "internalType": "address",
          "name": "valuationModule",
          "type": "address"
        }
      ],
      "name": "setValuationModule",
      "outputs": [],
      "stateMutability": "nonpayable",
      "type": "function"
    },
    {
      "inputs": [
        {
          "internalType": "address",
          "name": "_vault",
          "type": "address"
        }
      ],
      "name": "setVault",
      "outputs": [],
      "stateMutability": "nonpayable",
      "type": "function"
    },
    {
      "inputs": [],
      "name": "totalAllocationRate",
      "outputs": [
        {
          "internalType": "uint256",
          "name": "",
          "type": "uint256"
        }
      ],
      "stateMutability": "view",
      "type": "function"
    },
    {
      "inputs": [
        {
          "internalType": "uint256",
          "name": "assets",
          "type": "uint256"
        }
      ],
      "name": "useDeposit",
      "outputs": [],
      "stateMutability": "nonpayable",
      "type": "function"
    },
    {
      "inputs": [],
      "name": "vault",
      "outputs": [
        {
          "internalType": "address",
          "name": "",
          "type": "address"
        }
      ],
      "stateMutability": "view",
      "type": "function"
    },
    {
      "inputs": [
        {
          "internalType": "uint256",
          "name": "assets",
          "type": "uint256"
        }
      ],
      "name": "withdraw0",
      "outputs": [],
      "stateMutability": "nonpayable",
      "type": "function"
    },
    {
      "inputs": [
        {
          "internalType": "uint256",
          "name": "shares",
          "type": "uint256"
        }
      ],
      "name": "withdraw1",
      "outputs": [],
      "stateMutability": "nonpayable",
      "type": "function"
    }
  ],
  "bytecode": "0x608060405234801561001057600080fd5b50613b8a806100206000396000f3fe608060405234801561001057600080fd5b506004361061012c5760003560e01c8063b583d52b116100ad578063e66f53b711610071578063e66f53b71461031a578063f23a6e6114610338578063f72e903f14610368578063f9d4a3d114610384578063fbfa77cf146103b45761012c565b8063b583d52b1461024f578063c4d66de81461026b578063ca60cf4514610287578063ce710d6e146102b7578063cff10265146102e75761012c565b80636817031b116100f45780636817031b146101bf5780638da5cb5b146101db5780639041a565146101f957806393dc8c7e14610217578063a6e3a549146102335761012c565b80630f87a044146101315780632488e2031461014d57806327be0ffe1461016957806338d52e0f14610185578063679373c7146101a3575b600080fd5b61014b6004803603810190610146919061261d565b6103d2565b005b61016760048036038101906101629190612846565b61060f565b005b610183600480360381019061017e91906128e5565b6108df565b005b61018d610a26565b60405161019a9190612921565b60405180910390f35b6101bd60048036038101906101b8919061293c565b610a4c565b005b6101d960048036038101906101d491906128e5565b610c9f565b005b6101e3610ee8565b6040516101f09190612921565b60405180910390f35b610201610f0e565b60405161020e919061298b565b60405180910390f35b610231600480360381019061022c919061261d565b610f14565b005b61024d600480360381019061024891906129a6565b6115f7565b005b6102696004803603810190610264919061261d565b6117bd565b005b610285600480360381019061028091906128e5565b611b5b565b005b6102a1600480360381019061029c9190612a5f565b611cb2565b6040516102ae9190612aa7565b60405180910390f35b6102d160048036038101906102cc9190612846565b611cd2565b6040516102de9190612ad1565b60405180910390f35b61030160048036038101906102fc9190612a5f565b611d0b565b6040516103119493929190612b7a565b60405180910390f35b610322611e78565b60405161032f9190612921565b60405180910390f35b610352600480360381019061034d9190612c2d565b611e9e565b60405161035f9190612cc7565b60405180910390f35b610382600480360381019061037d9190612ce2565b611ecd565b005b61039e600480360381019061039991906128e5565b612597565b6040516103ab919061298b565b60405180910390f35b6103bc6125af565b6040516103c99190612921565b60405180910390f35b600160009054906101000a900473ffffffffffffffffffffffffffffffffffffffff1673ffffffffffffffffffffffffffffffffffffffff163373ffffffffffffffffffffffffffffffffffffffff16146104885733600160009054906101000a900473ffffffffffffffffffffffffffffffffffffffff166040517f295a81c100000000000000000000000000000000000000000000000000000000815260040161047f929190612d65565b60405180910390fd5b600081116104cb576040517f08c379a00000000000000000000000000000000000000000000000000000000081526004016104c290612deb565b60405180910390fd5b6000733eaf7d86eaee61d1c25ba4a68c2b5e291f209dc5905060008173ffffffffffffffffffffffffffffffffffffffff16637d41c86e60e01b84303060405160240161051a93929190612e0b565b604051602081830303815290604052907bffffffffffffffffffffffffffffffffffffffffffffffffffffffff19166020820180517bffffffffffffffffffffffffffffffffffffffffffffffffffffffff83818316178352505050506040516105849190612e7e565b6000604051808303816000865af19150503d80600081146105c1576040519150601f19603f3d011682016040523d82523d6000602084013e6105c6565b606091505b505090508061060a576040517f08c379a000000000000000000000000000000000000000000000000000000000815260040161060190612ee1565b60405180910390fd5b505050565b600160009054906101000a900473ffffffffffffffffffffffffffffffffffffffff1673ffffffffffffffffffffffffffffffffffffffff163373ffffffffffffffffffffffffffffffffffffffff16146106c55733600160009054906101000a900473ffffffffffffffffffffffffffffffffffffffff166040517f295a81c10000000000000000000000000000000000000000000000000000000081526004016106bc929190612d65565b60405180910390fd5b60006106d385858585611cd2565b90506004600082815260200190815260200160002060009054906101000a900460ff161561073857806040517f51d6cb7500000000000000000000000000000000000000000000000000000000815260040161072f9190612ad1565b60405180910390fd5b60016004600083815260200190815260200160002060006101000a81548160ff02191690831515021790555060405180608001604052808673ffffffffffffffffffffffffffffffffffffffff168152602001857bffffffffffffffffffffffffffffffffffffffffffffffffffffffff19168152602001848152602001838152506005600083815260200190815260200160002060008201518160000160006101000a81548173ffffffffffffffffffffffffffffffffffffffff021916908373ffffffffffffffffffffffffffffffffffffffff16021790555060208201518160000160146101000a81548163ffffffff021916908360e01c0217905550604082015181600101908161084d919061310d565b506060820151816002019081610863919061310d565b50905050837bffffffffffffffffffffffffffffffffffffffffffffffffffffffff19168573ffffffffffffffffffffffffffffffffffffffff16827f1bb78cd0b2c3a1fb051d9bb8235bbce618527314d3e3327711d222bfee9814af86866040516108d09291906131df565b60405180910390a45050505050565b600160009054906101000a900473ffffffffffffffffffffffffffffffffffffffff1673ffffffffffffffffffffffffffffffffffffffff163373ffffffffffffffffffffffffffffffffffffffff16146109955733600160009054906101000a900473ffffffffffffffffffffffffffffffffffffffff166040517f295a81c100000000000000000000000000000000000000000000000000000000815260040161098c929190612d65565b60405180910390fd5b60008054906101000a900473ffffffffffffffffffffffffffffffffffffffff1673ffffffffffffffffffffffffffffffffffffffff16638086ac5f8260016040518363ffffffff1660e01b81526004016109f1929190613251565b600060405180830381600087803b158015610a0b57600080fd5b505af1158015610a1f573d6000803e3d6000fd5b5050505050565b600360009054906101000a900473ffffffffffffffffffffffffffffffffffffffff1681565b600260009054906101000a900473ffffffffffffffffffffffffffffffffffffffff1673ffffffffffffffffffffffffffffffffffffffff163373ffffffffffffffffffffffffffffffffffffffff1614158015610af85750600160009054906101000a900473ffffffffffffffffffffffffffffffffffffffff1673ffffffffffffffffffffffffffffffffffffffff163373ffffffffffffffffffffffffffffffffffffffff1614155b15610b5e5733600260009054906101000a900473ffffffffffffffffffffffffffffffffffffffff166040517f295a81c1000000000000000000000000000000000000000000000000000000008152600401610b55929190612d65565b60405180910390fd5b606481600760008573ffffffffffffffffffffffffffffffffffffffff1673ffffffffffffffffffffffffffffffffffffffff16815260200190815260200160002054600654610bae91906132a9565b610bb891906132dd565b1115610bf9576040517f08c379a0000000000000000000000000000000000000000000000000000000008152600401610bf090613383565b60405180910390fd5b80600760008473ffffffffffffffffffffffffffffffffffffffff1673ffffffffffffffffffffffffffffffffffffffff16815260200190815260200160002054600654610c4791906132a9565b610c5191906132dd565b60068190555080600760008473ffffffffffffffffffffffffffffffffffffffff1673ffffffffffffffffffffffffffffffffffffffff168152602001908152602001600020819055505050565b600160009054906101000a900473ffffffffffffffffffffffffffffffffffffffff1673ffffffffffffffffffffffffffffffffffffffff163373ffffffffffffffffffffffffffffffffffffffff1614610d555733600160009054906101000a900473ffffffffffffffffffffffffffffffffffffffff166040517f295a81c1000000000000000000000000000000000000000000000000000000008152600401610d4c929190612d65565b60405180910390fd5b600073ffffffffffffffffffffffffffffffffffffffff1660008054906101000a900473ffffffffffffffffffffffffffffffffffffffff1673ffffffffffffffffffffffffffffffffffffffff1614610de4576040517f08c379a0000000000000000000000000000000000000000000000000000000008152600401610ddb906133ef565b60405180910390fd5b806000806101000a81548173ffffffffffffffffffffffffffffffffffffffff021916908373ffffffffffffffffffffffffffffffffffffffff160217905550600360009054906101000a900473ffffffffffffffffffffffffffffffffffffffff1673ffffffffffffffffffffffffffffffffffffffff1663095ea7b3827fffffffffffffffffffffffffffffffffffffffffffffffffffffffffffffffff6040518363ffffffff1660e01b8152600401610ea192919061340f565b6020604051808303816000875af1158015610ec0573d6000803e3d6000fd5b505050506040513d601f19601f82011682018060405250810190610ee49190613464565b5050565b600160009054906101000a900473ffffffffffffffffffffffffffffffffffffffff1681565b60065481565b60008054906101000a900473ffffffffffffffffffffffffffffffffffffffff1673ffffffffffffffffffffffffffffffffffffffff163373ffffffffffffffffffffffffffffffffffffffff1614610fc6573360008054906101000a900473ffffffffffffffffffffffffffffffffffffffff166040517f295a81c1000000000000000000000000000000000000000000000000000000008152600401610fbd929190612d65565b60405180910390fd5b60008111611009576040517f08c379a000000000000000000000000000000000000000000000000000000000815260040161100090612deb565b60405180910390fd5b6000733e59a31363e2ad014dcbc521c4a0d5757d9f3402905060006064600760008473ffffffffffffffffffffffffffffffffffffffff1673ffffffffffffffffffffffffffffffffffffffff16815260200190815260200160002054846110719190613491565b61107b9190613502565b90506000600360009054906101000a900473ffffffffffffffffffffffffffffffffffffffff1673ffffffffffffffffffffffffffffffffffffffff1663095ea7b360e01b84846040516024016110d392919061340f565b604051602081830303815290604052907bffffffffffffffffffffffffffffffffffffffffffffffffffffffff19166020820180517bffffffffffffffffffffffffffffffffffffffffffffffffffffffff838183161783525050505060405161113d9190612e7e565b6000604051808303816000865af19150503d806000811461117a576040519150601f19603f3d011682016040523d82523d6000602084013e61117f565b606091505b50509050806111c3576040517f08c379a00000000000000000000000000000000000000000000000000000000081526004016111ba9061357f565b60405180910390fd5b60008373ffffffffffffffffffffffffffffffffffffffff1663e8eda9df60e01b600360009054906101000a900473ffffffffffffffffffffffffffffffffffffffff168530600060405160240161121e94939291906135e7565b604051602081830303815290604052907bffffffffffffffffffffffffffffffffffffffffffffffffffffffff19166020820180517bffffffffffffffffffffffffffffffffffffffffffffffffffffffff83818316178352505050506040516112889190612e7e565b6000604051808303816000865af19150503d80600081146112c5576040519150601f19603f3d011682016040523d82523d6000602084013e6112ca565b606091505b505090508061130e576040517f08c379a000000000000000000000000000000000000000000000000000000000815260040161130590613678565b60405180910390fd5b50506000732a68c98bd43aa24331396f29166aef2bfd51343f905060006064600760008473ffffffffffffffffffffffffffffffffffffffff1673ffffffffffffffffffffffffffffffffffffffff16815260200190815260200160002054866113789190613491565b6113829190613502565b90506000600360009054906101000a900473ffffffffffffffffffffffffffffffffffffffff1673ffffffffffffffffffffffffffffffffffffffff1663095ea7b360e01b84846040516024016113da92919061340f565b604051602081830303815290604052907bffffffffffffffffffffffffffffffffffffffffffffffffffffffff19166020820180517bffffffffffffffffffffffffffffffffffffffffffffffffffffffff83818316178352505050506040516114449190612e7e565b6000604051808303816000865af19150503d8060008114611481576040519150601f19603f3d011682016040523d82523d6000602084013e611486565b606091505b50509050806114ca576040517f08c379a00000000000000000000000000000000000000000000000000000000081526004016114c1906136e4565b60405180910390fd5b60008373ffffffffffffffffffffffffffffffffffffffff16636e553f6560e01b84306040516024016114fe929190613704565b604051602081830303815290604052907bffffffffffffffffffffffffffffffffffffffffffffffffffffffff19166020820180517bffffffffffffffffffffffffffffffffffffffffffffffffffffffff83818316178352505050506040516115689190612e7e565b6000604051808303816000865af19150503d80600081146115a5576040519150601f19603f3d011682016040523d82523d6000602084013e6115aa565b606091505b50509050806115ee576040517f08c379a00000000000000000000000000000000000000000000000000000000081526004016115e590613779565b60405180910390fd5b50505050505050565b600160009054906101000a900473ffffffffffffffffffffffffffffffffffffffff1673ffffffffffffffffffffffffffffffffffffffff163373ffffffffffffffffffffffffffffffffffffffff16146116ad5733600160009054906101000a900473ffffffffffffffffffffffffffffffffffffffff166040517f295a81c10000000000000000000000000000000000000000000000000000000081526004016116a4929190612d65565b60405180910390fd5b60008060009054906101000a900473ffffffffffffffffffffffffffffffffffffffff1673ffffffffffffffffffffffffffffffffffffffff1663b2494df36040518163ffffffff1660e01b815260040160a060405180830381865afa15801561171b573d6000803e3d6000fd5b505050506040513d601f19601f8201168201806040525081019061173f91906137ae565b5050509150508073ffffffffffffffffffffffffffffffffffffffff1663a6e3a549868686866040518563ffffffff1660e01b81526004016117849493929190613829565b600060405180830381600087803b15801561179e57600080fd5b505af11580156117b2573d6000803e3d6000fd5b505050505050505050565b600160009054906101000a900473ffffffffffffffffffffffffffffffffffffffff1673ffffffffffffffffffffffffffffffffffffffff163373ffffffffffffffffffffffffffffffffffffffff16146118735733600160009054906101000a900473ffffffffffffffffffffffffffffffffffffffff166040517f295a81c100000000000000000000000000000000000000000000000000000000815260040161186a929190612d65565b60405180910390fd5b600081116118b6576040517f08c379a00000000000000000000000000000000000000000000000000000000081526004016118ad90612deb565b60405180910390fd5b6000733e59a31363e2ad014dcbc521c4a0d5757d9f34029050600073ff8309b9e99bfd2d4021bc71a362abd93dbd4785905060008173ffffffffffffffffffffffffffffffffffffffff1663095ea7b360e01b848660405160240161191c92919061340f565b604051602081830303815290604052907bffffffffffffffffffffffffffffffffffffffffffffffffffffffff19166020820180517bffffffffffffffffffffffffffffffffffffffffffffffffffffffff83818316178352505050506040516119869190612e7e565b6000604051808303816000865af19150503d80600081146119c3576040519150601f19603f3d011682016040523d82523d6000602084013e6119c8565b606091505b5050905080611a0c576040517f08c379a0000000000000000000000000000000000000000000000000000000008152600401611a03906138c1565b60405180910390fd5b60008373ffffffffffffffffffffffffffffffffffffffff166369328dec60e01b600360009054906101000a900473ffffffffffffffffffffffffffffffffffffffff168730604051602401611a64939291906138e1565b604051602081830303815290604052907bffffffffffffffffffffffffffffffffffffffffffffffffffffffff19166020820180517bffffffffffffffffffffffffffffffffffffffffffffffffffffffff8381831617835250505050604051611ace9190612e7e565b6000604051808303816000865af19150503d8060008114611b0b576040519150601f19603f3d011682016040523d82523d6000602084013e611b10565b606091505b5050905080611b54576040517f08c379a0000000000000000000000000000000000000000000000000000000008152600401611b4b90612ee1565b60405180910390fd5b5050505050565b600073ffffffffffffffffffffffffffffffffffffffff16600160009054906101000a900473ffffffffffffffffffffffffffffffffffffffff1673ffffffffffffffffffffffffffffffffffffffff1614611bec576040517f08c379a0000000000000000000000000000000000000000000000000000000008152600401611be390613964565b60405180910390fd5b33600160006101000a81548173ffffffffffffffffffffffffffffffffffffffff021916908373ffffffffffffffffffffffffffffffffffffffff16021790555033600260006101000a81548173ffffffffffffffffffffffffffffffffffffffff021916908373ffffffffffffffffffffffffffffffffffffffff16021790555080600360006101000a81548173ffffffffffffffffffffffffffffffffffffffff021916908373ffffffffffffffffffffffffffffffffffffffff16021790555050565b60046020528060005260406000206000915054906101000a900460ff1681565b600084848484604051602001611ceb9493929190612b7a565b604051602081830303815290604052805190602001209050949350505050565b60056020528060005260406000206000915090508060000160009054906101000a900473ffffffffffffffffffffffffffffffffffffffff16908060000160149054906101000a900460e01b90806001018054611d6790612f30565b80601f0160208091040260200160405190810160405280929190818152602001828054611d9390612f30565b8015611de05780601f10611db557610100808354040283529160200191611de0565b820191906000526020600020905b815481529060010190602001808311611dc357829003601f168201915b505050505090806002018054611df590612f30565b80601f0160208091040260200160405190810160405280929190818152602001828054611e2190612f30565b8015611e6e5780601f10611e4357610100808354040283529160200191611e6e565b820191906000526020600020905b815481529060010190602001808311611e5157829003601f168201915b5050505050905084565b600260009054906101000a900473ffffffffffffffffffffffffffffffffffffffff1681565b60007ff23a6e612e1ff4830e658fe43f4e3cb4a5f8170bd5d9e69fb5d7a7fa9e4fdf9790509695505050505050565b600260009054906101000a900473ffffffffffffffffffffffffffffffffffffffff1673ffffffffffffffffffffffffffffffffffffffff163373ffffffffffffffffffffffffffffffffffffffff1614158015611f795750600160009054906101000a900473ffffffffffffffffffffffffffffffffffffffff1673ffffffffffffffffffffffffffffffffffffffff163373ffffffffffffffffffffffffffffffffffffffff1614155b15611fdf5733600260009054906101000a900473ffffffffffffffffffffffffffffffffffffffff166040517f295a81c1000000000000000000000000000000000000000000000000000000008152600401611fd6929190612d65565b60405180910390fd5b6004600082815260200190815260200160002060009054906101000a900460ff1661204157806040517fcb2fc9270000000000000000000000000000000000000000000000000000000081526004016120389190612ad1565b60405180910390fd5b6000600560008381526020019081526020016000206040518060800160405290816000820160009054906101000a900473ffffffffffffffffffffffffffffffffffffffff1673ffffffffffffffffffffffffffffffffffffffff1673ffffffffffffffffffffffffffffffffffffffff1681526020016000820160149054906101000a900460e01b7bffffffffffffffffffffffffffffffffffffffffffffffffffffffff19167bffffffffffffffffffffffffffffffffffffffffffffffffffffffff1916815260200160018201805461211c90612f30565b80601f016020809104026020016040519081016040528092919081815260200182805461214890612f30565b80156121955780601f1061216a57610100808354040283529160200191612195565b820191906000526020600020905b81548152906001019060200180831161217857829003601f168201915b505050505081526020016002820180546121ae90612f30565b80601f01602080910402602001604051908101604052809291908181526020018280546121da90612f30565b80156122275780601f106121fc57610100808354040283529160200191612227565b820191906000526020600020905b81548152906001019060200180831161220a57829003601f168201915b5050505050815250509050806000015173ffffffffffffffffffffffffffffffffffffffff168573ffffffffffffffffffffffffffffffffffffffff16146122ae57818582600001516040517f51ee91a20000000000000000000000000000000000000000000000000000000081526004016122a593929190613984565b60405180910390fd5b80602001517bffffffffffffffffffffffffffffffffffffffffffffffffffffffff1916847bffffffffffffffffffffffffffffffffffffffffffffffffffffffff19161461233c57818482602001516040517fdccdb7f3000000000000000000000000000000000000000000000000000000008152600401612333939291906139bb565b60405180910390fd5b73__$f5f62d6bd029d2a69a0c77f3706b7d82d9$__63202ede0c84836040015184606001516040518463ffffffff1660e01b815260040161237f93929190613a3c565b602060405180830381865af415801561239c573d6000803e3d6000fd5b505050506040513d601f19601f820116820180604052508101906123c09190613464565b612405578184846040517fd27b29b20000000000000000000000000000000000000000000000000000000081526004016123fc93929190613a88565b60405180910390fd5b60008573ffffffffffffffffffffffffffffffffffffffff1685856040516024016124309190613ac6565b604051602081830303815290604052907bffffffffffffffffffffffffffffffffffffffffffffffffffffffff19166020820180517bffffffffffffffffffffffffffffffffffffffffffffffffffffffff838183161783525050505060405161249a9190612e7e565b6000604051808303816000865af19150503d80600081146124d7576040519150601f19603f3d011682016040523d82523d6000602084013e6124dc565b606091505b5050905080612520576040517f08c379a000000000000000000000000000000000000000000000000000000000815260040161251790613b34565b60405180910390fd5b847bffffffffffffffffffffffffffffffffffffffffffffffffffffffff19168673ffffffffffffffffffffffffffffffffffffffff16847f73c10c274679cd53b5bfc4e41a028729e9c218289200b252cd4b692e3b73e0a8876040516125879190613ac6565b60405180910390a4505050505050565b60076020528060005260406000206000915090505481565b60008054906101000a900473ffffffffffffffffffffffffffffffffffffffff1681565b6000604051905090565b600080fd5b600080fd5b6000819050919050565b6125fa816125e7565b811461260557600080fd5b50565b600081359050612617816125f1565b92915050565b600060208284031215612633576126326125dd565b5b600061264184828501612608565b91505092915050565b600073ffffffffffffffffffffffffffffffffffffffff82169050919050565b60006126758261264a565b9050919050565b6126858161266a565b811461269057600080fd5b50565b6000813590506126a28161267c565b92915050565b60007fffffffff0000000000000000000000000000000000000000000000000000000082169050919050565b6126dd816126a8565b81146126e857600080fd5b50565b6000813590506126fa816126d4565b92915050565b600080fd5b600080fd5b6000601f19601f8301169050919050565b7f4e487b7100000000000000000000000000000000000000000000000000000000600052604160045260246000fd5b6127538261270a565b810181811067ffffffffffffffff821117156127725761277161271b565b5b80604052505050565b60006127856125d3565b9050612791828261274a565b919050565b600067ffffffffffffffff8211156127b1576127b061271b565b5b6127ba8261270a565b9050602081019050919050565b82818337600083830152505050565b60006127e96127e484612796565b61277b565b90508281526020810184848401111561280557612804612705565b5b6128108482856127c7565b509392505050565b600082601f83011261282d5761282c612700565b5b813561283d8482602086016127d6565b91505092915050565b600080600080608085870312156128605761285f6125dd565b5b600061286e87828801612693565b945050602061287f878288016126eb565b935050604085013567ffffffffffffffff8111156128a05761289f6125e2565b5b6128ac87828801612818565b925050606085013567ffffffffffffffff8111156128cd576128cc6125e2565b5b6128d987828801612818565b91505092959194509250565b6000602082840312156128fb576128fa6125dd565b5b600061290984828501612693565b91505092915050565b61291b8161266a565b82525050565b60006020820190506129366000830184612912565b92915050565b60008060408385031215612953576129526125dd565b5b600061296185828601612693565b925050602061297285828601612608565b9150509250929050565b612985816125e7565b82525050565b60006020820190506129a0600083018461297c565b92915050565b600080600080608085870312156129c0576129bf6125dd565b5b60006129ce87828801612693565b94505060206129df87828801612608565b93505060406129f087828801612693565b925050606085013567ffffffffffffffff811115612a1157612a106125e2565b5b612a1d87828801612818565b91505092959194509250565b6000819050919050565b612a3c81612a29565b8114612a4757600080fd5b50565b600081359050612a5981612a33565b92915050565b600060208284031215612a7557612a746125dd565b5b6000612a8384828501612a4a565b91505092915050565b60008115159050919050565b612aa181612a8c565b82525050565b6000602082019050612abc6000830184612a98565b92915050565b612acb81612a29565b82525050565b6000602082019050612ae66000830184612ac2565b92915050565b612af5816126a8565b82525050565b600081519050919050565b600082825260208201905092915050565b60005b83811015612b35578082015181840152602081019050612b1a565b60008484015250505050565b6000612b4c82612afb565b612b568185612b06565b9350612b66818560208601612b17565b612b6f8161270a565b840191505092915050565b6000608082019050612b8f6000830187612912565b612b9c6020830186612aec565b8181036040830152612bae8185612b41565b90508181036060830152612bc28184612b41565b905095945050505050565b600080fd5b600080fd5b60008083601f840112612bed57612bec612700565b5b8235905067ffffffffffffffff811115612c0a57612c09612bcd565b5b602083019150836001820283011115612c2657612c25612bd2565b5b9250929050565b60008060008060008060a08789031215612c4a57612c496125dd565b5b6000612c5889828a01612693565b9650506020612c6989828a01612693565b9550506040612c7a89828a01612608565b9450506060612c8b89828a01612608565b935050608087013567ffffffffffffffff811115612cac57612cab6125e2565b5b612cb889828a01612bd7565b92509250509295509295509295565b6000602082019050612cdc6000830184612aec565b92915050565b60008060008060808587031215612cfc57612cfb6125dd565b5b6000612d0a87828801612693565b9450506020612d1b878288016126eb565b935050604085013567ffffffffffffffff811115612d3c57612d3b6125e2565b5b612d4887828801612818565b9250506060612d5987828801612a4a565b91505092959194509250565b6000604082019050612d7a6000830185612912565b612d876020830184612912565b9392505050565b600082825260208201905092915050565b7f417373657473206d7573742062652067726561746572207468616e2030000000600082015250565b6000612dd5601d83612d8e565b9150612de082612d9f565b602082019050919050565b60006020820190508181036000830152612e0481612dc8565b9050919050565b6000606082019050612e20600083018661297c565b612e2d6020830185612912565b612e3a6040830184612912565b949350505050565b600081905092915050565b6000612e5882612afb565b612e628185612e42565b9350612e72818560208601612b17565b80840191505092915050565b6000612e8a8284612e4d565b915081905092915050565b7f57697468647261772063616c6c206661696c6564000000000000000000000000600082015250565b6000612ecb601483612d8e565b9150612ed682612e95565b602082019050919050565b60006020820190508181036000830152612efa81612ebe565b9050919050565b7f4e487b7100000000000000000000000000000000000000000000000000000000600052602260045260246000fd5b60006002820490506001821680612f4857607f821691505b602082108103612f5b57612f5a612f01565b5b50919050565b60008190508160005260206000209050919050565b60006020601f8301049050919050565b600082821b905092915050565b600060088302612fc37fffffffffffffffffffffffffffffffffffffffffffffffffffffffffffffffff82612f86565b612fcd8683612f86565b95508019841693508086168417925050509392505050565b6000819050919050565b600061300a613005613000846125e7565b612fe5565b6125e7565b9050919050565b6000819050919050565b61302483612fef565b61303861303082613011565b848454612f93565b825550505050565b600090565b61304d613040565b61305881848461301b565b505050565b5b8181101561307c57613071600082613045565b60018101905061305e565b5050565b601f8211156130c15761309281612f61565b61309b84612f76565b810160208510156130aa578190505b6130be6130b685612f76565b83018261305d565b50505b505050565b600082821c905092915050565b60006130e4600019846008026130c6565b1980831691505092915050565b60006130fd83836130d3565b9150826002028217905092915050565b61311682612afb565b67ffffffffffffffff81111561312f5761312e61271b565b5b6131398254612f30565b613144828285613080565b600060209050601f8311600181146131775760008415613165578287015190505b61316f85826130f1565b8655506131d7565b601f19841661318586612f61565b60005b828110156131ad57848901518255600182019150602085019450602081019050613188565b868310156131ca57848901516131c6601f8916826130d3565b8355505b6001600288020188555050505b505050505050565b600060408201905081810360008301526131f98185612b41565b9050818103602083015261320d8184612b41565b90509392505050565b6000819050919050565b600061323b61323661323184613216565b612fe5565b6125e7565b9050919050565b61324b81613220565b82525050565b60006040820190506132666000830185612912565b6132736020830184613242565b9392505050565b7f4e487b7100000000000000000000000000000000000000000000000000000000600052601160045260246000fd5b60006132b4826125e7565b91506132bf836125e7565b92508282039050818111156132d7576132d661327a565b5b92915050565b60006132e8826125e7565b91506132f3836125e7565b925082820190508082111561330b5761330a61327a565b5b92915050565b7f546f74616c20616c6c6f636174696f6e2072617465206578636565647320313060008201527f3025000000000000000000000000000000000000000000000000000000000000602082015250565b600061336d602283612d8e565b915061337882613311565b604082019050919050565b6000602082019050818103600083015261339c81613360565b9050919050565b7f5661756c7420616c726561647920736574000000000000000000000000000000600082015250565b60006133d9601183612d8e565b91506133e4826133a3565b602082019050919050565b60006020820190508181036000830152613408816133cc565b9050919050565b60006040820190506134246000830185612912565b613431602083018461297c565b9392505050565b61344181612a8c565b811461344c57600080fd5b50565b60008151905061345e81613438565b92915050565b60006020828403121561347a576134796125dd565b5b60006134888482850161344f565b91505092915050565b600061349c826125e7565b91506134a7836125e7565b92508282026134b5816125e7565b915082820484148315176134cc576134cb61327a565b5b5092915050565b7f4e487b7100000000000000000000000000000000000000000000000000000000600052601260045260246000fd5b600061350d826125e7565b9150613518836125e7565b925082613528576135276134d3565b5b828204905092915050565b7f417070726f7665302063616c6c206661696c6564000000000000000000000000600082015250565b6000613569601483612d8e565b915061357482613533565b602082019050919050565b600060208201905081810360008301526135988161355c565b9050919050565b6000819050919050565b600060ff82169050919050565b60006135d16135cc6135c78461359f565b612fe5565b6135a9565b9050919050565b6135e1816135b6565b82525050565b60006080820190506135fc6000830187612912565b613609602083018661297c565b6136166040830185612912565b61362360608301846135d8565b95945050505050565b7f4465706f736974302063616c6c206661696c6564000000000000000000000000600082015250565b6000613662601483612d8e565b915061366d8261362c565b602082019050919050565b6000602082019050818103600083015261369181613655565b9050919050565b7f417070726f7665312063616c6c206661696c6564000000000000000000000000600082015250565b60006136ce601483612d8e565b91506136d982613698565b602082019050919050565b600060208201905081810360008301526136fd816136c1565b9050919050565b6000604082019050613719600083018561297c565b6137266020830184612912565b9392505050565b7f4465706f736974312063616c6c206661696c6564000000000000000000000000600082015250565b6000613763601483612d8e565b915061376e8261372d565b602082019050919050565b6000602082019050818103600083015261379281613756565b9050919050565b6000815190506137a88161267c565b92915050565b600080600080600060a086880312156137ca576137c96125dd565b5b60006137d888828901613799565b95505060206137e988828901613799565b94505060406137fa88828901613799565b935050606061380b88828901613799565b925050608061381c88828901613799565b9150509295509295909350565b600060808201905061383e6000830187612912565b61384b602083018661297c565b6138586040830185612912565b818103606083015261386a8184612b41565b905095945050505050565b7f417070726f76652063616c6c206661696c656400000000000000000000000000600082015250565b60006138ab601383612d8e565b91506138b682613875565b602082019050919050565b600060208201905081810360008301526138da8161389e565b9050919050565b60006060820190506138f66000830186612912565b613903602083018561297c565b6139106040830184612912565b949350505050565b7f416c726561647920696e697469616c697a656400000000000000000000000000600082015250565b600061394e601383612d8e565b915061395982613918565b602082019050919050565b6000602082019050818103600083015261397d81613941565b9050919050565b60006060820190506139996000830186612ac2565b6139a66020830185612912565b6139b36040830184612912565b949350505050565b60006060820190506139d06000830186612ac2565b6139dd6020830185612aec565b6139ea6040830184612aec565b949350505050565b600082825260208201905092915050565b6000613a0e82612afb565b613a1881856139f2565b9350613a28818560208601612b17565b613a318161270a565b840191505092915050565b60006060820190508181036000830152613a568186613a03565b90508181036020830152613a6a8185613a03565b90508181036040830152613a7e8184613a03565b9050949350505050565b6000606082019050613a9d6000830186612ac2565b613aaa6020830185612aec565b8181036040830152613abc8184612b41565b9050949350505050565b60006020820190508181036000830152613ae08184612b41565b905092915050565b7f43616c6c206661696c6564000000000000000000000000000000000000000000600082015250565b6000613b1e600b83612d8e565b9150613b2982613ae8565b602082019050919050565b60006020820190508181036000830152613b4d81613b11565b905091905056fea26469706673582212200010ca4d14a4b7e5b262cd255715f5f270108608d42fe2bb9afb025e8fdce6d864736f6c63430008160033",
  "linkReferences": {
    "contracts/libraries/BytesLib.sol": {
      "BytesLib": [
        {
          "length": 20,
          "start": 9054
        }
      ]
    }
  },
  "deployedLinkReferences": {
    "contracts/libraries/BytesLib.sol": {
      "BytesLib": [
        {
          "length": 20,
          "start": 9022
        }
      ]
    }
  }
}