{
  "_format": "hh-sol-artifact-1",
  "contractName": "BytesLib",
  "sourceName": "contracts/libraries/BytesLib.sol",
  "abi": [
    {
      "inputs": [
        {
          "internalType": "bytes",
          "name": "data",
          "type": "bytes"
        },
        {
          "internalType": "bytes",
          "name": "pattern",
          "type": "bytes"
        },
        {
          "internalType": "bytes",
          "name": "mask",
          "type": "bytes"
        }
      ],
      "name": "compareCondition",
      "outputs": [
        {
          "internalType": "bool",
          "name": "isMatch",
          "type": "bool"
        }
      ],
      "stateMutability": "pure",
      "type": "function"
    }
  ],
  "bytecode": "0x61033e610053600b82828239805160001a607314610046577f4e487b7100000000000000000000000000000000000000000000000000000000600052600060045260246000fd5b30600052607381538281f3fe73000000000000000000000000000000000000000030146080604052600436106100355760003560e01c8063202ede0c1461003a575b600080fd5b610054600480360381019061004f919061022b565b61006a565b60405161006191906102ed565b60405180910390f35b6000835180835114818551141661008057600080fd5b60208501602085016020850160005b848110156100c157808401518184015182840151808216818416146100b357600080f35b50505060208101905061008f565b5060019450505050509392505050565b6000604051905090565b600080fd5b600080fd5b600080fd5b600080fd5b6000601f19601f8301169050919050565b7f4e487b7100000000000000000000000000000000000000000000000000000000600052604160045260246000fd5b610138826100ef565b810181811067ffffffffffffffff8211171561015757610156610100565b5b80604052505050565b600061016a6100d1565b9050610176828261012f565b919050565b600067ffffffffffffffff82111561019657610195610100565b5b61019f826100ef565b9050602081019050919050565b82818337600083830152505050565b60006101ce6101c98461017b565b610160565b9050828152602081018484840111156101ea576101e96100ea565b5b6101f58482856101ac565b509392505050565b600082601f830112610212576102116100e5565b5b81356102228482602086016101bb565b91505092915050565b600080600060608486031215610244576102436100db565b5b600084013567ffffffffffffffff811115610262576102616100e0565b5b61026e868287016101fd565b935050602084013567ffffffffffffffff81111561028f5761028e6100e0565b5b61029b868287016101fd565b925050604084013567ffffffffffffffff8111156102bc576102bb6100e0565b5b6102c8868287016101fd565b9150509250925092565b60008115159050919050565b6102e7816102d2565b82525050565b600060208201905061030260008301846102de565b9291505056fea2646970667358221220e0ec00d78daefe50e2ace7edd699fe079df0b41e19f94aa8e18e11ee8d57c08c64736f6c63430008160033",
  "linkReferences": {},
  "deployedLinkReferences": {}
}